:100000000C9462000C948A000C948A000C948A0070
:100010000C948A000C948A000C948A000C948A0038
:100020000C948A000C948A000C948A000C948A0028
:100030000C948A000C948A000C948A000C948A0018
:100040000C9436030C948A000C948A000C948A0059
:100050000C948A000C948A000C948A000C948A00F8
:100060000C948A000C948A00000000080002010031
:100070000003040700000000000000000102040863
:100080001020408001020408102001020408102002
:10009000040404040404040402020202020203032E
:1000A00003030303000000002300260029000000D2
:1000B0000000250028002B0000000000240027007D
:1000C0002A00720111241FBECFEFD8E0DEBFCDBFE2
:1000D00011E0A0E0B1E0EEE4FCE002C005900D927A
:1000E000A431B107D9F721E0A4E1B1E001C01D922C
:1000F000AB33B207E1F710E0C4ECD0E004C02297C4
:10010000FE010E942106C23CD107C9F70E94D30418
:100110000C9425060C94000060E087E00E943A04ED
:1001200060E086E00E943A0420E042E060E18AE17B
:1001300091E00E944F0240E060E08AE191E00E947D
:10014000350260E071E08AE191E00C942005CF93E4
:10015000DF9387E00E94A904892B49F48091140160
:10016000909115010196909315018093140186E0FA
:100170000E94A904892B89F486E00E94A904892B96
:10018000D9F31092190110921801109217011092D0
:100190001601109215011092140180911401909192
:1001A0001501CC9769F410921501109214018091F9
:1001B00016019091170101969093170180931601F3
:1001C0008091160190911701CC9769F41092170154
:1001D0001092160180911801909119010196909347
:1001E0001901809318018091180190911901489785
:1001F00061F41092190110921801109217011092D7
:100200001601109215011092140141E060E08AE19C
:1002100091E00E9435028091180190911901CAE085
:10022000D0E0BE010E94D5054AE050E08AE191E0AD
:100230000E94CC058091180190911901BE010E9485
:10024000D5054AE050E0BC018AE191E00E94CC056E
:1002500069E071E08AE191E00E9420058091160139
:1002600090911701BE010E94D5054AE050E08AE155
:1002700091E00E94CC058091160190911701BE017A
:100280000E94D5054AE050E0BC018AE191E00E945D
:10029000CC0569E071E08AE191E00E94200580913F
:1002A000140190911501BE010E94D5054AE050E06D
:1002B0008AE191E00E94CC05809114019091150192
:1002C000BE010E94D5054AE050E0BC018AE191E000
:1002D0000E94CC0568EE73E080E090E0DF91CF9162
:1002E0000C94A303CF92EF920F9382E0C82E93E079
:1002F000E92E04E025E04BE06CE08AE191E00E9409
:100300000A030F91EF90CF900895CF93DF93EC0104
:1003100060E08E810E94730481E090E00E94CB0334
:1003200061E08E810E94730481E090E00E94CB0323
:1003300060E08E810E94730484E690E0DF91CF91AB
:100340000C94CB03CF92DF92EF92FF920F931F9307
:10035000CF93DF937C01C0E0D0E0C62ED12C870183
:100360000C0F1D1F61E0F80187810E943A04B6015D
:100370000C2E02C0759567950A94E2F76170F8013A
:1003800087810E9473042196C430D10541F7C701CB
:10039000DF91CF911F910F91FF90EF90DF90CF9061
:1003A0000C948501CF92DF92EF92FF920F931F93EF
:1003B000CF93DF937C01C0E0D0E0C62ED12C870123
:1003C0000C0F1D1F61E0F80187810E943A04B601FD
:1003D0000C2E02C0759567950A94E2F76170F801DA
:1003E00087810E9473042196C830D10541F7C70167
:1003F000DF91CF911F910F91FF90EF90DF90CF9001
:100400000C9485011F93CF93DF93EC01162F642F7B
:100410008C810E9473048D818F3F19F060E00E94EF
:1004200073048F85612F84FF06C0CE01DF91CF91C9
:100430001F910C94D20170E084E0759567958A95C0
:10044000E1F7CE010E94A201612FCE01DF91CF9191
:100450001F910C94A20140E00C94020261E00E9402
:100460002B0280ED97E00C94CB03443008F043E07E
:10047000FC012389421710F04FEF420FFC01E40FFB
:10048000F11D2489260F2068622F0C942B02FC0199
:100490006089262F2460208B6C600C942B02CF93F4
:1004A000DF93EC01423018F08F8588608F874B8B8B
:1004B0001C8A80E48D8B6E8B70E0605C7F4F6F8B4D
:1004C000222329F0413019F48F8584608F8780E5DD
:1004D00093EC0E94CB0360E08C810E94730460E087
:1004E0008E810E9473048D818F3F19F060E00E941D
:1004F00073046F8564FD1DC063E0CE010E94A201FC
:1005000084E991E10E94CB0363E0CE010E94A20145
:1005100084E991E10E94CB0363E0CE010E94A20135
:1005200086E990E00E94CB0362E0CE010E94A20126
:1005300016C06062CE010E942B0284E991E10E9404
:10054000CB036F856062CE010E942B0286E990E0AA
:100550000E94CB036F856062CE010E942B026F85E3
:100560006062CE010E942B0284E0888BCE010E9443
:100570004702CE010E942E0282E0898B66E0CE0106
:10058000DF91CF910C942B026F927F928F92AF925A
:10059000CF92EF920F931F93CF93DF93CDB7DEB738
:1005A0003C01162F842F5D854E853F859889F30188
:1005B000848325830683E782C086A186828653874B
:1005C00044873587968761E00E943A04F30185816C
:1005D0008F3F19F061E00E943A0461E0F3018681E7
:1005E0000E943A04112319F0F301178603C080E139
:1005F000F301878720E041E060E1C301DF91CF9103
:100600001F910F91EF90CF90AF908F907F906F9050
:100610000C944F028F92AF92CF92EF920F93DC0126
:1006200013961C921E921297EFE0F1E0ED93FC936B
:100630001F921F921F921F928C2CAE2CC02EE22E66
:10064000042F2FEF462F61E00E94C4020F900F90FD
:100650000F900F900F91EF90CF90AF908F900895E3
:1006600041E00E94020281E090E008951F920F9203
:100670000FB60F9211242F933F938F939F93AF93B5
:10068000BF938091330190913401A0913501B091D5
:1006900036013091320123E0230F2D3720F40196EB
:1006A000A11DB11D05C026E8230F0296A11DB11D95
:1006B000209332018093330190933401A09335014C
:1006C000B09336018091370190913801A0913901A2
:1006D000B0913A010196A11DB11D8093370190930D
:1006E0003801A0933901B0933A01BF91AF919F9126
:1006F0008F913F912F910F900FBE0F901F901895E3
:100700003FB7F8948091370190913801A091390159
:10071000B0913A0126B5A89B05C02F3F19F001966C
:10072000A11DB11D3FBF6627782F892F9A2F620F19
:10073000711D811D911D42E0660F771F881F991F53
:100740004A95D1F70895CF92DF92EF92FF92CF931F
:10075000DF936B017C010E948003EB01C114D10483
:10076000E104F10489F00E94D4050E9480036C1B0F
:100770007D0B683E734090F381E0C81AD108E10810
:10078000F108C851DC4FEACFDF91CF91FF90EF9095
:10079000DF90CF9008958230910538F0880F991F2F
:1007A000880F991F05970197F1F70895789484B5FC
:1007B000826084BD84B5816084BD85B5826085BD5D
:1007C00085B5816085BDEEE6F0E080818160808343
:1007D000E1E8F0E010828081826080838081816026
:1007E0008083E0E8F0E0808181608083E1EBF0E0ED
:1007F000808184608083E0EBF0E080818160808391
:10080000EAE7F0E080818460808380818260808379
:100810008081816080838081806880831092C100A4
:100820000895833081F028F4813099F08230A1F06E
:1008300008958730A9F08830B9F08430D1F48091E0
:1008400080008F7D03C0809180008F77809380002F
:10085000089584B58F7702C084B58F7D84BD0895D7
:100860008091B0008F7703C08091B0008F7D80931E
:10087000B0000895CF93DF9390E0FC01E458FF4F60
:100880002491FC01E057FF4F8491882349F190E0C7
:10089000880F991FFC01E854FF4FA591B491825530
:1008A0009F4FFC01C591D4919FB7611108C0F89486
:1008B0008C91209582238C93888182230AC0623098
:1008C00051F4F8948C91322F309583238C93888146
:1008D000822B888304C0F8948C91822B8C939FBFC9
:1008E000DF91CF9108950F931F93CF93DF931F92C2
:1008F000CDB7DEB7282F30E0F901E859FF4F8491DA
:10090000F901E458FF4F1491F901E057FF4F0491AA
:100910000023C9F0882321F069830E9411046981B2
:10092000E02FF0E0EE0FFF1FE255FF4FA591B491CD
:100930009FB7F8948C91611103C01095812301C079
:10094000812B8C939FBF0F90DF91CF911F910F91BF
:100950000895CF93DF93282F30E0F901E859FF4F36
:100960008491F901E458FF4FD491F901E057FF4F0A
:10097000C491CC2391F081110E941104EC2FF0E07E
:10098000EE0FFF1FEC55FF4FA591B4912C912D2335
:1009900081E090E021F480E002C080E090E0DF910F
:1009A000CF91089508950E94D6030E94D2040E9418
:1009B0008C00C0E0D0E00E94A7002097E1F30E94E5
:1009C0000000F9CFCF92DF92EF92FF920F931F9327
:1009D000CF93DF936C017A01EB01E60EF71E00E086
:1009E00010E0CE15DF0561F06991D601ED91FC9123
:1009F0000190F081E02DC6010995080F191FF1CF74
:100A0000C801DF91CF911F910F91FF90EF90DF9080
:100A1000CF9008956115710581F0DB010D900020E4
:100A2000E9F7AD0141505109461B570BDC01ED912F
:100A3000FC910280F381E02D099480E090E008951C
:100A40000C940A05DC01ED91FC910190F081E02D00
:100A500009948F929F92AF92BF92CF92DF92EF92C2
:100A6000FF920F931F93CF93DF93CDB7DEB7A1977C
:100A70000FB6F894DEBF0FBECDBF7C01C42EE52FAC
:100A8000CB01D22E19A221E02D1510F02AE0D22E92
:100A90008E010F5D1F4F8D2C912CA12CB12C6C2D34
:100AA0007E2FA50194010E94E9058C2DD29E80190C
:100AB0001124015011098A3014F4805D01C0895C51
:100AC000F8018083211531054105510521F0C22E21
:100AD000E32FCA01E4CFB801C7010E940A05A1961D
:100AE0000FB6F894DEBF0FBECDBFDF91CF911F913F
:100AF0000F91FF90EF90DF90CF90BF90AF909F90BD
:100B00008F900895CF92DF92EF92FF920F931F93F1
:100B1000CF93DF93EC016A017B012115310579F454
:100B2000E881F9810190F081E02D642FDF91CF9170
:100B30001F910F91FF90EF90DF90CF9009942A3092
:100B40003105E9F477FF1AC06DE20E9422058C019D
:100B500044275527BA014C195D096E097F092AE01F
:100B6000CE010E942905800F911FDF91CF911F9127
:100B70000F91FF90EF90DF90CF9008952AE0B7019A
:100B8000A601CE01DF91CF911F910F91FF90EF90C1
:100B9000DF90CF900C9429059A01AB01662757FD91
:100BA0006095762F0C948205089597FB072E16F416
:100BB000009407D077FD09D00E940B0607FC05D0F2
:100BC0003EF4909581959F4F0895709561957F4F64
:100BD0000895A1E21A2EAA1BBB1BFD010DC0AA1F7E
:100BE000BB1FEE1FFF1FA217B307E407F50720F096
:100BF000A21BB30BE40BF50B661F771F881F991F11
:100C00001A9469F760957095809590959B01AC0159
:100C1000BD01CF010895AA1BBB1B51E107C0AA1F4C
:100C2000BB1FA617B70710F0A61BB70B881F991F8D
:100C30005A95A9F780959095BC01CD010895EE0FC6
:0E0C4000FF1F0590F491E02D0994F894FFCF6A
:100C4E0048483A4D4D3A5353003A000000000030E8
:040C5E0003E20400A9
:00000001FF
