:100000000C945E000C9486000C9486000C94860080
:100010000C9486000C9486000C9486000C94860048
:100020000C9486000C9486000C9486000C94860038
:100030000C9486000C9486000C9486000C94860028
:100040000C94E0020C9486000C9498050C94CA055C
:100050000C9486000C9486000C9486000C94860008
:100060000C9486000C948600000000080002010039
:100070000003040700000000000000000102040863
:100080001020408001020408102001020408102002
:10009000040404040404040402020202020203032E
:1000A0000303030300000000250028002B000000CC
:1000B0000000240027002A00A800FA0511241FBE12
:1000C000CFEFD8E0DEBFCDBF11E0A0E0B1E0E0E9C6
:1000D000FDE002C005900D92A035B107D9F722E0EE
:1000E000A0E5B1E001C01D92AE31B207E1F710E02A
:1000F000CCEBD0E004C02297FE010E94B906C83BB9
:10010000D107C9F70E943E060C94C6060C94000065
:1001100026E040E855E260E070E081E891E00E946E
:10012000360520E042E060E180E691E00E94F901BE
:1001300061E08DE00E94E40340E060E080E691E051
:100140000E94DF0160E071E080E691E00C948B0694
:10015000CF92EF920F9382E0C82E93E0E92E04E055
:1001600025E04CE06DE080E691E00E94B4020F9142
:10017000EF90CF900895CF93DF9381E891E00E94B4
:100180005304181619060CF067C0C0915001DD2702
:10019000C7FDD09581E891E00E946C04CF5ADE4FF4
:1001A00088836091500181E0860F8093500141E087
:1001B00080E691E00E94DF0168E580E691E00E9420
:1001C0008D06E0915001FF27E7FDF095E05BFE4FC3
:1001D00080818D3009F040C010821092500161E1A1
:1001E00071E081E591E00E94BD06892B69F480E60B
:1001F00091E00E94D80140E060E080E691E00E943A
:10020000DF0166E171E022C080E691E00E94D80142
:1002100040E060E080E691E00E94DF0167E271E08B
:1002200080E691E00E948B0668EB7BE080E090E046
:100230000E944D0380E691E00E94D80140E060E01A
:1002400080E691E00E94DF0160E071E080E691E0ED
:10025000DF91CF910C948B06DF91CF910895CF93CE
:10026000DF93EC0160E08E810E941D0481E090E04C
:100270000E94750361E08E810E941D0481E090E080
:100280000E94750360E08E810E941D0484E690E068
:10029000DF91CF910C947503CF92DF92EF92FF9292
:1002A0000F931F93CF93DF937C01C0E0D0E0C62E65
:1002B000D12C87010C0F1D1F61E0F80187810E947E
:1002C000E403B6010C2E02C0759567950A94E2F717
:1002D0006170F80187810E941D042196C430D10508
:1002E00041F7C701DF91CF911F910F91FF90EF90E0
:1002F000DF90CF900C942F01CF92DF92EF92FF927C
:100300000F931F93CF93DF937C01C0E0D0E0C62E04
:10031000D12C87010C0F1D1F61E0F80187810E941D
:10032000E403B6010C2E02C0759567950A94E2F7B6
:100330006170F80187810E941D042196C830D105A3
:1003400041F7C701DF91CF911F910F91FF90EF907F
:10035000DF90CF900C942F011F93CF93DF93EC018C
:10036000162F642F8C810E941D048D818F3F19F000
:1003700060E00E941D048F85612F84FF06C0CE01BE
:10038000DF91CF911F910C947C0170E084E0759512
:1003900067958A95E1F7CE010E944C01612FCE014D
:1003A000DF91CF911F910C944C0140E00C94AC0173
:1003B00061E00E94D50180ED97E00C947503443014
:1003C00008F043E0FC012389421710F04FEF420F81
:1003D000FC01E40FF11D2489260F2068622F0C9484
:1003E000D501FC016089262F2460208B6C600C9461
:1003F000D501CF93DF93EC01423018F08F858860F0
:100400008F874B8B1C8A80E48D8B6E8B70E0605CD9
:100410007F4F6F8B222329F0413019F48F85846040
:100420008F8780E593EC0E94750360E08C810E94C9
:100430001D0460E08E810E941D048D818F3F19F0A4
:1004400060E00E941D046F8564FD1DC063E0CE0165
:100450000E944C0184E991E10E94750363E0CE01A2
:100460000E944C0184E991E10E94750363E0CE0192
:100470000E944C0186E990E00E94750362E0CE0183
:100480000E944C0116C06062CE010E94D50184E931
:1004900091E10E9475036F856062CE010E94D501D3
:1004A00086E990E00E9475036F856062CE010E942C
:1004B000D5016F856062CE010E94D50184E0888BF2
:1004C000CE010E94F101CE010E94D80182E0898B09
:1004D00066E0CE01DF91CF910C94D5016F927F92AF
:1004E0008F92AF92CF92EF920F931F93CF93DF93A0
:1004F000CDB7DEB73C01162F842F5D854E853F8535
:100500009889F301848325830683E782C086A186C8
:100510008286538744873587968761E00E94E4038B
:10052000F30185818F3F19F061E00E94E40361E0EF
:10053000F30186810E94E403112319F0F301178669
:1005400003C080E1F301878720E041E060E1C3015F
:10055000DF91CF911F910F91EF90CF90AF908F903F
:100560007F906F900C94F9018F92AF92CF92EF929F
:100570000F93DC0113961C921E921297ECE3F1E0AC
:10058000ED93FC931F921F921F921F928C2CAE2C06
:10059000C02EE22E042F2FEF462F61E00E946E0244
:1005A0000F900F900F900F900F91EF90CF90AF9012
:1005B0008F90089541E00E94AC0181E090E00895A1
:1005C0001F920F920FB60F9211242F933F938F9388
:1005D0009F93AF93BF938091790190917A01A091FD
:1005E0007B01B0917C013091780123E0230F2D37FE
:1005F00020F40196A11DB11D05C026E8230F029627
:10060000A11DB11D209378018093790190937A0107
:10061000A0937B01B0937C0180917D0190917E013C
:10062000A0917F01B09180010196A11DB11D809321
:100630007D0190937E01A0937F01B0938001BF91D3
:10064000AF919F918F913F912F910F900FBE0F907F
:100650001F9018953FB7F89480917D0190917E018D
:10066000A0917F01B091800126B5A89B05C02F3FC6
:1006700019F00196A11DB11D3FBF6627782F892F64
:100680009A2F620F711D811D911D42E0660F771F29
:10069000881F991F4A95D1F70895CF92DF92EF9264
:1006A000FF92CF93DF936B017C010E942A03EB0141
:1006B000C114D104E104F10489F00E9494060E945F
:1006C0002A036C1B7D0B683E734090F381E0C81ACF
:1006D000D108E108F108C851DC4FEACFDF91CF9192
:1006E000FF90EF90DF90CF9008958230910538F021
:1006F000880F991F880F991F05970197F1F70895A3
:10070000789484B5826084BD84B5816084BD85B5EC
:10071000826085BD85B5816085BDEEE6F0E08081B3
:1007200081608083E1E8F0E01082808182608083D4
:10073000808181608083E0E8F0E080818160808357
:10074000E1EBF0E0808184608083E0EBF0E0808189
:1007500081608083EAE7F0E080818460808380812B
:1007600082608083808181608083808180688083D3
:100770001092C1000895833081F028F4813099F0FF
:100780008230A1F008958730A9F08830B9F0843024
:10079000D1F4809180008F7D03C0809180008F779D
:1007A00080938000089584B58F7702C084B58F7DD3
:1007B00084BD08958091B0008F7703C08091B00010
:1007C0008F7D8093B0000895CF93DF9390E0FC017C
:1007D000E458FF4F2491FC01E057FF4F8491882398
:1007E00049F190E0880F991FFC01E255FF4FA59158
:1007F000B4918C559F4FFC01C591D4919FB7611165
:1008000008C0F8948C91209582238C938881822350
:100810000AC0623051F4F8948C91322F30958323C2
:100820008C938881822B888304C0F8948C91822BCE
:100830008C939FBFDF91CF9108950F931F93CF9318
:10084000DF931F92CDB7DEB7282F30E0F901E859CA
:10085000FF4F8491F901E458FF4F1491F901E057DB
:10086000FF4F04910023C9F0882321F069830E947F
:10087000BB036981E02FF0E0EE0FFF1FEC55FF4F47
:10088000A591B4919FB7F8948C91611103C0109514
:10089000812301C0812B8C939FBF0F90DF91CF915B
:1008A0001F910F910895FC01818D228D90E0805C55
:1008B0009F4F821B91098F7399270895FC01918D99
:1008C000828D981731F0828DE80FF11D858D90E0B3
:1008D00008958FEF9FEF0895FC01918D828D9817F9
:1008E00061F0828DDF01A80FB11D5D968C91928D14
:1008F0009F5F9F73928F90E008958FEF9FEF089511
:1009000080EF95E0892B49F080E090E0892B29F079
:100910000E94F00581110C9400000895FC01848D63
:10092000DF01A80FB11DA35ABF4F2C91848D90E019
:1009300001968F739927848FA689B7892C93A089F4
:10094000B1898C9180648C93938D848D981306C0AB
:100950000288F389E02D80818F7D80830895CF9375
:10096000DF93EC01888D8823C9F0EA89FB898081B7
:1009700085FD05C0A889B9898C9186FD0FC00FB689
:1009800007FCF5CF808185FFF2CFA889B9898C91CA
:1009900085FFEDCFCE010E948E04E7CFDF91CF918E
:1009A0000895CF92DF92FF920F931F93CF93DF931F
:1009B0001F92CDB7DEB76C0181E0D60158968C93BB
:1009C00058975B969C915B975C968C915C9798137B
:1009D00007C05096ED91FC915197808185FD2EC006
:1009E000F601038D10E00F5F1F4F0F731127F02EDC
:1009F000F601848DF81211C00FB607FCF9CFD601AD
:100A00005096ED91FC915197808185FFF1CFC60101
:100A100069830E948E046981EBCF838DE80FF11DFD
:100A2000E35AFF4F6083D6015B960C935B97529617
:100A3000ED91FC915397808180620CC0D60156964F
:100A4000ED91FC91579760835096ED91FC915197F1
:100A500080818064808381E090E00F90DF91CF916E
:100A60001F910F91FF90DF90CF900895BF92CF928A
:100A7000DF92EF92FF92CF93DF93EC016A017B014B
:100A8000B22EE889F98982E08083411581EE58070A
:100A900061057105A1F060E079E08DE390E0A701C8
:100AA00096010E9495062150310941095109569538
:100AB000479537952795211580E1380798F0E88903
:100AC000F989108260E874E88EE190E0A701960150
:100AD0000E949506215031094109510956954795C3
:100AE00037952795EC85FD853083EE85FF8520833E
:100AF000188EEC89FD89B082EA89FB89808180614A
:100B00008083EA89FB89808188608083EA89FB8908
:100B1000808180688083EA89FB8980818F7D8083E2
:100B2000DF91CF91FF90EF90DF90CF90BF9008952D
:100B30001F920F920FB60F9211242F938F939F93B2
:100B4000EF93FF93E0919101F09192018081E09108
:100B50009701F091980182FD12C0908180919A01D5
:100B60008F5F8F7320919B01821751F0E0919A0162
:100B7000F0E0EF57FE4F958F80939A0101C080817E
:100B8000FF91EF919F918F912F910F900FBE0F903A
:100B90001F9018951F920F920FB60F9211242F934A
:100BA0003F934F935F936F937F938F939F93AF93F5
:100BB000BF93EF93FF9381E891E00E948E04FF9131
:100BC000EF91BF91AF919F918F917F916F915F91C5
:100BD0004F913F912F910F900FBE0F901F9018953E
:100BE00081E891E00E94530421E0892B09F420E080
:100BF000822F0895109284011092830188EE93E071
:100C0000A0E0B0E08093850190938601A0938701D6
:100C1000B093880184E491E09093820180938101F4
:100C200085EC90E090938E0180938D0184EC90E0B0
:100C30009093900180938F0180EC90E090939201CB
:100C40008093910181EC90E09093940180939301C3
:100C500082EC90E0909396018093950186EC90E071
:100C6000909398018093970110929A0110929B01A2
:100C700010929C0110929D01089508950E94800396
:100C80000E943D060E948800C0E8D4E00E94BB009C
:100C90002097E1F30E948004F9CFCF92DF92EF9288
:100CA000FF920F931F93CF93DF936C017A01EB01B7
:100CB000E60EF71E00E010E0CE15DF0561F0699149
:100CC000D601ED91FC910190F081E02DC6010995CE
:100CD000080F191FF1CFC801DF91CF911F910F911C
:100CE000FF90EF90DF90CF9008956115710581F02E
:100CF000DB010D900020E9F7AD0141505109461B81
:100D0000570BDC01ED91FC910280F381E02D0994F9
:100D100080E090E008950C947506DC01ED91FC9163
:100D20000190F081E02D09940895A1E21A2EAA1BEA
:100D3000BB1BFD010DC0AA1FBB1FEE1FFF1FA2178B
:100D4000B307E407F50720F0A21BB30BE40BF50B88
:100D5000661F771F881F991F1A9469F76095709511
:100D6000809590959B01AC01BD01CF010895EE0FD8
:100D7000FF1F0590F491E02D0994FB01DC018D919A
:100D8000019080190110D9F3990B0895F894FFCFC1
:100D9000454E5445522050415353574F52443A20E8
:100DA00000414243440020414343455353204752AE
:100DB000414E544544200020414343455353204471
:100DC000454E49454421200000000000DA024D064E
:100DD00000000000D1044D0653046C045E04AF040F
:00000001FF
