:100000000C945D000C9485000C9485000C94850084
:100010000C9485000C9485000C9485000C9485004C
:100020000C9485000C9485000C9485000C9485003C
:100030000C9485000C9485000C9485000C9485002C
:100040000C940C030C9485000C9485000C94850092
:100050000C9485000C9485000C9485000C9485000C
:100060000C9485000C94850000000008000201003B
:100070000003040700000000000000000102040863
:100080001020408001020408102001020408102002
:10009000040404040404040402020202020203032E
:1000A0000303030300000000250028002B000000CC
:1000B0000000240027002A00480111241FBECFEFB2
:1000C000D8E0DEBFCDBF11E0A0E0B1E0E8EAFBE0A0
:1000D00002C005900D92A831B107D9F721E0A8E13F
:1000E000B1E001C01D92AB33B207E1F710E0CAEBFB
:1000F000D0E004C02297FE010E94CE05C83BD10784
:10010000C9F70E9480040C94D2050C94000020E0F2
:1001100042E060E18AE191E00E94250240E060E077
:100120008AE191E00E940B0264E071E08AE191E0D3
:100130000C94CD04CF93DF93809118019091190115
:1001400001968C33910529F0909319018093180141
:100150000DC0109219011092180180910001909128
:1001600001010196909301018093000180910001AB
:1001700090910101CC9769F4109201011092000155
:100180008091020190910301019690930301809365
:1001900002018091020190910301489761F410924D
:1001A00003011092020110920101109200011092BD
:1001B00019011092180141E060E08AE191E00E948B
:1001C0000B028091020190910301CAE0D0E0BE01D0
:1001D0000E9482054AE050E08AE191E00E947905A0
:1001E0008091020190910301BE010E9482054AE0C4
:1001F00050E0BC018AE191E00E9479056DE071E078
:100200008AE191E00E94CD0480910001909101016A
:10021000BE010E9482054AE050E08AE191E00E941E
:1002200079058091000190910101BE010E94820533
:100230004AE050E0BC018AE191E00E9479056DE05E
:1002400071E08AE191E00E94CD04809118019091C3
:100250001901BE010E9482054AE050E08AE191E066
:100260000E9479058091180190911901BE010E94A8
:1002700082054AE050E0BC018AE191E00E947905E4
:1002800068EE73E080E090E0DF91CF910C94790309
:10029000CF92EF920F9382E0C82E93E0E92E04E014
:1002A00025E04BE06CE08AE191E00E94E0020F91D2
:1002B000EF90CF900895CF93DF93EC0160E08E81B3
:1002C0000E94490481E090E00E94A10361E08E81D8
:1002D0000E94490481E090E00E94A10360E08E81C9
:1002E0000E94490484E690E0DF91CF910C94A10331
:1002F000CF92DF92EF92FF920F931F93CF93DF93F2
:100300007C01C0E0D0E0C62ED12C87010C0F1D1F50
:1003100061E0F80187810E941004B6010C2E02C032
:10032000759567950A94E2F76170F80187810E94DC
:1003300049042196C430D10541F7C701DF91CF911F
:100340001F910F91FF90EF90DF90CF900C945B0185
:10035000CF92DF92EF92FF920F931F93CF93DF9391
:100360007C01C0E0D0E0C62ED12C87010C0F1D1FF0
:1003700061E0F80187810E941004B6010C2E02C0D2
:10038000759567950A94E2F76170F80187810E947C
:1003900049042196C830D10541F7C701DF91CF91BB
:1003A0001F910F91FF90EF90DF90CF900C945B0125
:1003B0001F93CF93DF93EC01162F642F8C810E9443
:1003C00049048D818F3F19F060E00E9449048F85B8
:1003D000612F84FF06C0CE01DF91CF911F910C9455
:1003E000A80170E084E0759567958A95E1F7CE01E4
:1003F0000E947801612FCE01DF91CF911F910C9463
:10040000780140E00C94D80161E00E94010280ED87
:1004100097E00C94A103443008F043E0FC012389E9
:10042000421710F04FEF420FFC01E40FF11D248939
:10043000260F2068622F0C940102FC016089262F90
:100440002460208B6C600C940102CF93DF93EC014D
:10045000423018F08F8588608F874B8B1C8A80E430
:100460008D8B6E8B70E0605C7F4F6F8B222329F049
:10047000413019F48F8584608F8780E593EC0E946A
:10048000A10360E08C810E94490460E08E810E949B
:1004900049048D818F3F19F060E00E9449046F8507
:1004A00064FD1DC063E0CE010E94780184E991E102
:1004B0000E94A10363E0CE010E94780184E991E1EA
:1004C0000E94A10363E0CE010E94780186E990E0DA
:1004D0000E94A10362E0CE010E94780116C0606212
:1004E000CE010E94010284E991E10E94A1036F857F
:1004F0006062CE010E94010286E990E00E94A103A1
:100500006F856062CE010E9401026F856062CE013C
:100510000E94010284E0888BCE010E941D02CE0160
:100520000E94040282E0898B66E0CE01DF91CF91C8
:100530000C9401026F927F928F92AF92CF92EF92C2
:100540000F931F93CF93DF93CDB7DEB73C01162FE8
:10055000842F5D854E853F859889F30184832583AB
:100560000683E782C086A1868286538744873587C3
:10057000968761E00E941004F30185818F3F19F096
:1005800061E00E94100461E0F30186810E94100482
:10059000112319F0F301178603C080E1F301878767
:1005A00020E041E060E1C301DF91CF911F910F9105
:1005B000EF90CF90AF908F907F906F900C9425022A
:1005C0008F92AF92CF92EF920F93DC0113961C9211
:1005D0001E921297E3E1F1E0ED93FC931F921F92BC
:1005E0001F921F928C2CAE2CC02EE22E042F2FEFC8
:1005F000462F61E00E949A020F900F900F900F908B
:100600000F91EF90CF90AF908F90089541E00E94AE
:10061000D80181E090E008951F920F920FB60F92DB
:1006200011242F933F938F939F93AF93BF93809108
:10063000330190913401A0913501B0913601309190
:10064000320123E0230F2D3720F40196A11DB11DA7
:1006500005C026E8230F0296A11DB11D209332018B
:100660008093330190933401A0933501B093360108
:100670008091370190913801A0913901B0913A01F0
:100680000196A11DB11D8093370190933801A0936D
:100690003901B0933A01BF91AF919F918F913F91F2
:1006A0002F910F900FBE0F901F9018953FB7F894A1
:1006B0008091370190913801A0913901B0913A01B0
:1006C00026B5A89B05C02F3F19F00196A11DB11DAD
:1006D0003FBF6627782F892F9A2F620F711D811DCA
:1006E000911D42E0660F771F881F991F4A95D1F729
:1006F0000895CF92DF92EF92FF92CF93DF936B0139
:100700007C010E945603EB01C114D104E104F10401
:1007100089F00E9481050E9456036C1B7D0B683E88
:10072000734090F381E0C81AD108E108F108C8517C
:10073000DC4FEACFDF91CF91FF90EF90DF90CF9029
:1007400008958230910538F0880F991F880F991FFE
:1007500005970197F1F70895789484B5826084BD78
:1007600084B5816084BD85B5826085BD85B58160B5
:1007700085BDEEE6F0E0808181608083E1E8F0E015
:100780001082808182608083808181608083E0E844
:10079000F0E0808181608083E1EBF0E08081846023
:1007A0008083E0EBF0E0808181608083EAE7F0E025
:1007B0008081846080838081826080838081816089
:1007C00080838081806880831092C1000895833087
:1007D00081F028F4813099F08230A1F008958730BB
:1007E000A9F08830B9F08430D1F4809180008F7DF9
:1007F00003C0809180008F7780938000089584B536
:100800008F7702C084B58F7D84BD08958091B0003C
:100810008F7703C08091B0008F7D8093B0000895E2
:10082000CF93DF9390E0FC01E458FF4F2491FC014B
:10083000E057FF4F8491882349F190E0880F991F7A
:10084000FC01E255FF4FA591B4918C559F4FFC01DF
:10085000C591D4919FB7611108C0F8948C912095EF
:1008600082238C93888182230AC0623051F4F894E9
:100870008C91322F309583238C938881822B8883AF
:1008800004C0F8948C91822B8C939FBFDF91CF9101
:1008900008950F931F93CF93DF931F92CDB7DEB7C9
:1008A000282F30E0F901E859FF4F8491F901E4580D
:1008B000FF4F1491F901E057FF4F04910023C9F055
:1008C000882321F069830E94E7036981E02FF0E02B
:1008D000EE0FFF1FEC55FF4FA591B4919FB7F89411
:1008E0008C91611103C01095812301C0812B8C93E1
:1008F0009FBF0F90DF91CF911F910F9108950895A1
:100900000E94AC030E947F040E948700C0E0D0E0F8
:100910000E949A002097E1F30E940000F9CFCF9245
:10092000DF92EF92FF920F931F93CF93DF936C01AF
:100930007A01EB01E60EF71E00E010E0CE15DF05B0
:1009400061F06991D601ED91FC910190F081E02D6B
:10095000C6010995080F191FF1CFC801DF91CF918A
:100960001F910F91FF90EF90DF90CF900895611548
:10097000710581F0DB010D900020E9F7AD014150D8
:100980005109461B570BDC01ED91FC910280F3816C
:10099000E02D099480E090E008950C94B704DC0108
:1009A000ED91FC910190F081E02D09948F929F923E
:1009B000AF92BF92CF92DF92EF92FF920F931F936D
:1009C000CF93DF93CDB7DEB7A1970FB6F894DEBF14
:1009D0000FBECDBF7C01C42EE52FCB01D22E19A2B4
:1009E00021E02D1510F02AE0D22E8E010F5D1F4F51
:1009F0008D2C912CA12CB12C6C2D7E2FA501940156
:100A00000E9496058C2DD29E801911240150110947
:100A10008A3014F4805D01C0895CF801808321155F
:100A200031054105510521F0C22EE32FCA01E4CF63
:100A3000B801C7010E94B704A1960FB6F894DEBFB3
:100A40000FBECDBFDF91CF911F910F91FF90EF901F
:100A5000DF90CF90BF90AF909F908F900895CF92EE
:100A6000DF92EF92FF920F931F93CF93DF93EC01EE
:100A70006A017B012115310579F4E881F981019042
:100A8000F081E02D642FDF91CF911F910F91FF90A6
:100A9000EF90DF90CF9009942A303105E9F477FF89
:100AA0001AC06DE20E94CF048C0144275527BA0179
:100AB0004C195D096E097F092AE0CE010E94D60417
:100AC000800F911FDF91CF911F910F91FF90EF90B9
:100AD000DF90CF9008952AE0B701A601CE01DF9103
:100AE000CF911F910F91FF90EF90DF90CF900C94DA
:100AF000D6049A01AB01662757FD6095762F0C94BA
:100B00002F05089597FB072E16F4009407D077FD64
:100B100009D00E94B80507FC05D03EF49095819558
:100B20009F4F0895709561957F4F0895A1E21A2E09
:100B3000AA1BBB1BFD010DC0AA1FBB1FEE1FFF1F81
:100B4000A217B307E407F50720F0A21BB30BE40BD1
:100B5000F50B661F771F881F991F1A9469F7609518
:100B60007095809590959B01AC01BD01CF010895D2
:100B7000AA1BBB1B51E107C0AA1FBB1FA617B707C3
:100B800010F0A61BB70B881F991F5A95A9F78095DF
:100B90009095BC01CD010895EE0FFF1F0590F491D3
:080BA000E02D0994F894FFCF49
:100BA8003B00170048483A4D4D3A5353003A00006D
:080BB80000000006038F040099
:00000001FF
