:100000000C945C000C9479000C9479000C947900A9
:100010000C9479000C9479000C9479000C9479007C
:100020000C9479000C9479000C9479000C9479006C
:100030000C9479000C9479000C9479000C9479005C
:100040000C94AD010C9479000C9479000C94790017
:100050000C9479000C9479000C9479000C9479003C
:100060000C9479000C947900000000080002010053
:100070000003040700000000000000000102040863
:100080001020408001020408102001020408102002
:10009000040404040404040402020202020203032E
:1000A0000303030300000000250028002B000000CC
:1000B0000000240027002A0011241FBECFEFD8E043
:1000C000DEBFCDBF11E0A0E0B1E0E0EAF6E002C0A3
:1000D00005900D92AA30B107D9F721E0AAE0B1E06E
:1000E00001C01D92A431B207E1F70E9416030C94DF
:1000F0004E030C940000CF93C0E061E08C2F0E946F
:10010000A602CF5FC730C9F761E0809103010E946A
:10011000A60261E080910201CF910C94A6028111A8
:100120001BC061E080910A010E94DF0261E08091C2
:1001300009010E94DF0261E0809108010E94DF0254
:1001400061E0809107010E94DF0261E08091060179
:100150000E94DF0261E01CC0813001F560E0809107
:100160000A010E94DF0261E0809109010E94DF0222
:1001700061E0809108010E94DF0260E08091070148
:100180000E94DF0260E0809106010E94DF0260E0D1
:10019000809105010E94DF0260E097C08230B1F4D7
:1001A00061E080910A010E94DF0261E08091090113
:1001B0000E94DF0260E0809108010E94DF0261E09E
:1001C000809107010E94DF0261E017C08330D9F4FB
:1001D00061E080910A010E94DF0261E080910901E3
:1001E0000E94DF0261E0809108010E94DF0261E06D
:1001F000809107010E94DF0260E0809106010E9469
:10020000DF0260E05DC0843089F460E080910A0123
:100210000E94DF0261E0809109010E94DF0261E03B
:10022000809108010E94DF0260E040C0853039F40F
:1002300061E080910A010E94DF0260E02DC08630FB
:1002400039F461E080910A010E94DF0260E00CC095
:10025000873011F461E083CF8830B1F461E08091A0
:100260000A010E94DF0261E0809109010E94DF0221
:1002700061E0809108010E94DF0261E08091070146
:100280000E94DF0261E017C0893019F561E08091BA
:100290000A010E94DF0261E0809109010E94DF02F1
:1002A00061E0809108010E94DF0261E08091070116
:1002B0000E94DF0260E0809106010E94DF0261E09F
:1002C000809105010E94DF0261E0809104010C949D
:1002D000DF020895CF93DF9361E0809103010E94D4
:1002E000DF0261E0809102010E94DF028091000143
:1002F00090910101CAE0D0E0BE010E942603862F42
:100300000E948F0060E0809103010E94DF0262E0A2
:1003100070E080E090E00E941A0261E080910301A9
:100320000E94DF0261E0809102010E94DF02809161
:10033000000190910101BE010E9426030E948F00DE
:1003400060E0809102010E94DF0262E070E080E0E4
:1003500090E0DF91CF910C941A021F920F920FB68A
:100360000F9211242F933F938F939F93AF93BF933B
:1003700080910C0190910D01A0910E01B0910F019F
:1003800030910B0123E0230F2D3720F40196A11D9E
:10039000B11D05C026E8230F0296A11DB11D2093B3
:1003A0000B0180930C0190930D01A0930E01B0936B
:1003B0000F018091100190911101A0911201B09153
:1003C00013010196A11DB11D80931001909311019D
:1003D000A0931201B0931301BF91AF919F918F91A0
:1003E0003F912F910F900FBE0F901F9018953FB720
:1003F000F8948091100190911101A0911201B09197
:10040000130126B5A89B05C02F3F19F00196A11D29
:10041000B11D3FBF6627782F892F9A2F620F711D5C
:10042000811D911D42E0660F771F881F991F4A9515
:10043000D1F70895CF92DF92EF92FF92CF93DF939F
:100440006B017C010E94F701EB01C114D104E104AE
:10045000F10489F00E9425030E94F7016C1B7D0BBB
:10046000683E734090F381E0C81AD108E108F108B2
:10047000C851DC4FEACFDF91CF91FF90EF90DF9032
:10048000CF900895789484B5826084BD84B58160EE
:1004900084BD85B5826085BD85B5816085BDEEE68C
:1004A000F0E0808181608083E1E8F0E0108280816B
:1004B00082608083808181608083E0E8F0E08081D9
:1004C00081608083E1EBF0E0808184608083E0EBF9
:1004D000F0E0808181608083EAE7F0E080818460E1
:1004E000808380818260808380818160808380813D
:1004F000806880831092C1000895833081F028F4D1
:10050000813099F08230A1F008958730A9F08830C9
:10051000B9F08430D1F4809180008F7D03C0809148
:1005200080008F7780938000089584B58F7702C014
:1005300084B58F7D84BD08958091B0008F7703C00E
:100540008091B0008F7D8093B0000895CF93DF93AA
:1005500090E0FC01E458FF4F2491FC01E057FF4F6D
:100560008491882349F190E0880F991FFC01E2559E
:10057000FF4FA591B4918C559F4FFC01C591D4912B
:100580009FB7611108C0F8948C91209582238C93B9
:10059000888182230AC0623051F4F8948C91322F02
:1005A000309583238C938881822B888304C0F894B0
:1005B0008C91822B8C939FBFDF91CF9108950F93E5
:1005C0001F93CF93DF931F92CDB7DEB7282F30E074
:1005D000F901E859FF4F8491F901E458FF4F149154
:1005E000F901E057FF4F04910023C9F0882321F05F
:1005F00069830E947D026981E02FF0E0EE0FFF1F0A
:10060000EC55FF4FA591B4919FB7F8948C9161116F
:1006100003C01095812301C0812B8C939FBF0F9045
:10062000DF91CF911F910F91089508950E9442028A
:100630000E9415030E947B00C0E0D0E00E946A0186
:100640002097E1F30E940000F9CF089597FB072E51
:1006500016F4009407D077FD09D00E943A0307FCF6
:1006600005D03EF4909581959F4F089570956195C2
:100670007F4F0895AA1BBB1B51E107C0AA1FBB1FD8
:10068000A617B70710F0A61BB70B881F991F5A951E
:10069000A9F780959095BC01CD010895F894FFCFFE
:0A06A00045000807060504030201E7
:00000001FF
