:100000000C9453000C947B000C947B000C947B00AC
:100010000C947B000C947B000C947B000C947B0074
:100020000C947B000C947B000C947B000C947B0064
:100030000C947B000C947B000C947B000C947B0054
:100040000C946C030C947B000C945C020C948E0258
:100050000C947B000C947B000C947B000C947B0034
:100060000C947B000C947B0001020408102040805B
:1000700001020408102001020408102004040404F2
:100080000404040402020202020203030303030342
:1000900000000000250028002B00000000002400C4
:1000A00027002A00BE0211241FBECFEFD8E0DEBF1A
:1000B000CDBF11E0A0E0B1E0E8E4F8E002C00590B7
:1000C0000D92A835B107D9F722E0A8E5B1E001C04B
:1000D0001D92A430B207E1F710E0C6EAD0E004C0F8
:1000E0002297FE010E941504C43AD107C9F70E9465
:1000F00002030C9422040C94000026E040E855E230
:1001000060E070E08EE591E00E94FA0161E08DE030
:100110000E94DE0066E271E08EE591E00C945A03E5
:10012000CF93DF938EE591E00E9417011816190610
:100130000CF041C0C0915801DD27C7FDD0958EE578
:1001400091E00E943001C75ADE4F888380915801A8
:100150008F5F8093580168E58EE591E00E944F0320
:1001600080915801843039F510925D011092580148
:1001700060E071E089E591E00E94190469E471E0B2
:10018000892B39F48EE591E00E945A0365E071E015
:100190000CC08EE591E00E945A0365E171E08EE5A6
:1001A00091E00E945A0364E271E08EE591E0DF91F4
:1001B000CF910C945A03DF91CF910895CF93DF93A1
:1001C00090E0FC01E859FF4F2491FC01E458FF4FF7
:1001D0008491882349F190E0880F991FFC01E6562D
:1001E000FF4FA591B49180579F4FFC01C591D491C9
:1001F0009FB7611108C0F8948C91209582238C934D
:10020000888182230AC0623051F4F8948C91322F95
:10021000309583238C938881822B888304C0F89443
:100220008C91822B8C939FBFDF91CF910895FC011D
:10023000818D228D90E0805C9F4F821B91098F738E
:1002400099270895FC01918D828D981731F0828D48
:10025000E80FF11D858D90E008958FEF9FEF0895D1
:10026000FC01918D828D981761F0828DDF01A80FBE
:10027000B11D5D968C91928D9F5F9F73928F90E0E0
:1002800008958FEF9FEF089584EB92E0892B49F05A
:1002900080E090E0892B29F00E94B40281110C9437
:1002A00000000895FC01848DDF01A80FB11DA35A41
:1002B000BF4F2C91848D90E001968F739927848F86
:1002C000A689B7892C93A089B1898C9180648C937D
:1002D000938D848D981306C00288F389E02D808168
:1002E0008F7D80830895CF93DF93EC01888D8823E1
:1002F000C9F0EA89FB89808185FD05C0A889B98993
:100300008C9186FD0FC00FB607FCF5CF808185FF6D
:10031000F2CFA889B9898C9185FFEDCFCE010E94DB
:100320005201E7CFDF91CF910895CF92DF92FF92F4
:100330000F931F93CF93DF931F92CDB7DEB76C015E
:1003400081E0D60158968C9358975B969C915B9769
:100350005C968C915C97981307C05096ED91FC9138
:100360005197808185FD2EC0F601038D10E00F5F4F
:100370001F4F0F731127F02EF601848DF81211C054
:100380000FB607FCF9CFD6015096ED91FC9151972D
:10039000808185FFF1CFC60169830E945201698186
:1003A000EBCF838DE80FF11DE35AFF4F6083D60139
:1003B0005B960C935B975296ED91FC9153978081DD
:1003C00080620CC0D6015696ED91FC9157976083E0
:1003D0005096ED91FC91519780818064808381E0FB
:1003E00090E00F90DF91CF911F910F91FF90DF90E0
:1003F000CF900895BF92CF92DF92EF92FF92CF936A
:10040000DF93EC016A017B01B22EE889F98982E071
:100410008083411581EE580761057105A1F060E008
:1004200079E08DE390E0A70196010E94F10321504D
:100430003109410951095695479537952795211559
:1004400080E1380798F0E889F989108260E874E85B
:100450008EE190E0A70196010E94F103215031093D
:10046000410951095695479537952795EC85FD85A6
:100470003083EE85FF852083188EEC89FD89B0825C
:10048000EA89FB89808180618083EA89FB89808198
:1004900088608083EA89FB89808180688083EA891B
:1004A000FB8980818F7D8083DF91CF91FF90EF90DA
:1004B000DF90CF90BF9008951F920F920FB60F92CA
:1004C00011242F938F939F93EF93FF93E0916E01ED
:1004D000F0916F018081E0917401F091750182FDCE
:1004E00012C09081809177018F5F8F732091780186
:1004F000821751F0E0917701F0E0E25AFE4F958FBC
:100500008093770101C08081FF91EF919F918F913E
:100510002F910F900FBE0F901F9018951F920F9262
:100520000FB60F9211242F933F934F935F936F93C6
:100530007F938F939F93AF93BF93EF93FF938EE53A
:1005400091E00E945201FF91EF91BF91AF919F9175
:100550008F917F916F915F914F913F912F910F906C
:100560000FBE0F901F9018958EE591E00E94170125
:1005700021E0892B09F420E0822F08951092610177
:100580001092600188EE93E0A0E0B0E080936201F9
:1005900090936301A0936401B09365018BE391E0B4
:1005A00090935F0180935E0185EC90E090936B01E6
:1005B00080936A0184EC90E090936D0180936C01CC
:1005C00080EC90E090936F0180936E0181EC90E05D
:1005D000909371018093700182EC90E0909373018D
:1005E0008093720186EC90E0909375018093740182
:1005F00010927701109278011092790110927A018D
:10060000089508950E94B6030E9401030E947D0090
:10061000C4E4D1E00E9490002097E1F30E944401DD
:10062000F9CFCF92DF92EF92FF920F931F93CF9368
:10063000DF936C017A01EB01E60EF71E00E010E09B
:10064000CE15DF0561F06991D601ED91FC91019025
:10065000F081E02DC6010995080F191FF1CFC801DF
:10066000DF91CF911F910F91FF90EF90DF90CF908E
:1006700008956115710581F0DB010D900020E9F707
:10068000AD0141505109461B570BDC01ED91FC9126
:100690000280F381E02D099480E090E00895DC0170
:1006A000ED91FC910190F081E02D099467E471E0F7
:1006B0000C9439030F931F93CF93DF93EC010E94A7
:1006C00039038C01CE010E945603800F911FDF91E8
:1006D000CF911F910F9108951F920F920FB60F9215
:1006E00011242F933F938F939F93AF93BF93809148
:1006F000FC019091FD01A091FE01B091FF013091AC
:10070000FB0123E0230F2D3720F40196A11DB11D1D
:1007100005C026E8230F0296A11DB11D2093FB0101
:100720008093FC019093FD01A093FE01B093FF0123
:100730008091000290910102A0910202B091030207
:100740000196A11DB11D8093000290930102A09318
:100750000202B0930302BF91AF919F918F913F919D
:100760002F910F900FBE0F901F901895789484B51D
:10077000826084BD84B5816084BD85B5826085BD9D
:1007800085B5816085BDEEE6F0E080818160808383
:10079000E1E8F0E010828081826080838081816066
:1007A0008083E0E8F0E0808181608083E1EBF0E02D
:1007B000808184608083E0EBF0E0808181608083D1
:1007C000EAE7F0E0808184608083808182608083BA
:1007D0008081816080838081806880831092C100E5
:1007E0000895A1E21A2EAA1BBB1BFD010DC0AA1F72
:1007F000BB1FEE1FFF1FA217B307E407F50720F08A
:10080000A21BB30BE40BF50B661F771F881F991F04
:100810001A9469F760957095809590959B01AC014D
:10082000BD01CF010895EE0FFF1F0590F491E02D5B
:100830000994FB01DC018D91019080190110D9F31D
:08084000990B0895F894FFCF15
:100848004142434400414343455353204752414E9C
:1008580054454421004143434553532044454E49A0
:10086800454421005245454E54455220504153536A
:10087800574F52443A200000000000950111031719
:10088800013001220173010D0A006E616E00696E6C
:0808980066006F7666002E0079
:00000001FF
