:100000000C9461000C9473000C9473000C947300B6
:100010000C9473000C9473000C9473000C94730094
:100020000C9473000C9473000C9473000C94730084
:100030000C9473000C9473000C9473000C94730074
:100040000C9443020C9473000C9473000C94730092
:100050000C9473000C9473000C9473000C94730054
:100060000C9473000C94730000000008000201005F
:100070000003040700000000000000000102040863
:100080001020408001020408102001020408102002
:10009000040404040404040402020202020203032E
:1000A00003030303000000002300260029000000D2
:1000B0000000250028002B0000000000240027007D
:1000C0002A0011241FBECFEFD8E0DEBFCDBF21E054
:1000D000A0E0B1E001C01D92AB30B207E1F70E9491
:1000E00034020C94C8020C940000CF93C0E061E08D
:1000F0008C2F0E949B01CF5FC730C9F760E087E07B
:100100000E949B0160E088E00E949B0160E089E022
:10011000CF910C949B01811115C061E00E94D40124
:1001200061E081E00E94D40161E082E00E94D4019C
:1001300061E083E00E94D40161E084E00E94D40188
:1001400061E017C08130D1F460E080E00E94D4010A
:1001500061E081E00E94D40161E082E00E94D4016C
:1001600060E083E00E94D40160E084E00E94D4015A
:1001700060E085E00E94D40160E07FC0823091F4AD
:1001800061E080E00E94D40161E081E00E94D4013E
:1001900060E082E00E94D40161E083E00E94D4012B
:1001A00061E013C08330B1F461E080E00E94D401CB
:1001B00061E081E00E94D40161E082E00E94D4010C
:1001C00061E083E00E94D40160E084E00E94D401F9
:1001D00060E04FC0843071F460E080E00E94D401A0
:1001E00061E081E00E94D40161E082E00E94D401DC
:1001F00060E037C0853031F461E080E00E94D401D6
:1002000060E027C0863031F461E080E00E94D401D4
:1002100060E00BC0873011F461E097CF883091F433
:1002200061E080E00E94D40161E081E00E94D4019D
:1002300061E082E00E94D40161E083E00E94D40189
:1002400061E013C08930E1F461E080E00E94D401F4
:1002500061E081E00E94D40161E082E00E94D4016B
:1002600061E083E00E94D40160E084E00E94D40158
:1002700061E085E00E94D40161E086E00C94D40145
:10028000089589E00E940A02892B11F482E001C0DE
:1002900081E08093000188E00E940A02892B71F4BA
:1002A00088E00E940A02892BD9F380910001909185
:1002B0000101890F809301010E948B0087E00E9459
:1002C0000A02892B71F487E00E940A02892BD9F374
:1002D0008091010190910001891B809301010C9490
:1002E0008B000895833081F028F4813099F08230BA
:1002F000A1F008958730A9F08830B9F08430D1F4A6
:10030000809180008F7D03C0809180008F778093E3
:100310008000089584B58F7702C084B58F7D84BD39
:1003200008958091B0008F7703C08091B0008F7DD9
:100330008093B0000895CF93DF9390E0FC01E458E0
:10034000FF4F2491FC01E057FF4F8491882349F12E
:1003500090E0880F991FFC01E854FF4FA591B491DC
:1003600082559F4FFC01C591D4919FB7611108C080
:10037000F8948C91209582238C93888182230AC0E3
:10038000623051F4F8948C91322F309583238C9302
:100390008881822B888304C0F8948C91822B8C9363
:1003A0009FBFDF91CF9108950F931F93CF93DF935A
:1003B0001F92CDB7DEB7282F30E0F901E859FF4F83
:1003C0008491F901E458FF4F1491F901E057FF4F70
:1003D00004910023C9F0882321F069830E947201EF
:1003E0006981E02FF0E0EE0FFF1FE255FF4FA5916E
:1003F000B4919FB7F8948C91611103C0109581233B
:1004000001C0812B8C939FBF0F90DF91CF911F91E3
:100410000F910895CF93DF93282F30E0F901E85929
:10042000FF4F8491F901E458FF4FD491F901E0574F
:10043000FF4FC491CC2391F081110E947201EC2FE7
:10044000F0E0EE0FFF1FEC55FF4FA591B4912C91FA
:100450002D2381E090E021F480E002C080E090E074
:10046000DF91CF91089508950E948D020E9433027A
:100470000E947500C0E0D0E00E9441012097E1F3A6
:100480000E940000F9CF1F920F920FB60F92112415
:100490002F933F938F939F93AF93BF9380910301CB
:1004A00090910401A0910501B091060130910201E3
:1004B00023E0230F2D3720F40196A11DB11D05C0A7
:1004C00026E8230F0296A11DB11D209302018093FF
:1004D000030190930401A0930501B093060180915C
:1004E000070190910801A0910901B0910A010196BC
:1004F000A11DB11D8093070190930801A0930901EC
:10050000B0930A01BF91AF919F918F913F912F912D
:100510000F900FBE0F901F901895789484B582604D
:1005200084BD84B5816084BD85B5826085BD85B597
:10053000816085BDEEE6F0E0808181608083E1E846
:10054000F0E010828081826080838081816080837E
:10055000E0E8F0E0808181608083E1EBF0E0808181
:1005600084608083E0EBF0E0808181608083EAE753
:10057000F0E08081846080838081826080838081DC
:10058000816080838081806880831092C10008959B
:04059000F894FFCF0D
:00000001FF
