:100000000C9461000C9473000C9473000C947300B6
:100010000C9473000C9473000C9473000C94730094
:100020000C9473000C9473000C9473000C94730084
:100030000C9473000C9473000C9473000C94730074
:100040000C9451020C9473000C9473000C94730084
:100050000C9473000C9473000C9473000C94730054
:100060000C9473000C94730000000008000201005F
:100070000003040700000000000000000102040863
:100080001020408001020408102001020408102002
:10009000040404040404040402020202020203032E
:1000A00003030303000000002300260029000000D2
:1000B0000000250028002B0000000000240027007D
:1000C0002A0011241FBECFEFD8E0DEBFCDBF21E054
:1000D000A0E0B1E001C01D92AA30B207E1F70E9492
:1000E00042020C94D6020C940000CF93C0E061E071
:1000F0008C2F0E94A901CF5FCC30C9F760E08CE063
:100100000E94A90160E08DE0CF910C94A901863492
:1001100051F461E080E00E94E20160E081E00E9431
:10012000E20160E03BC0823491F461E080E00E9433
:10013000E20161E081E00E94E20161E082E00E9470
:10014000E20161E083E00E94E20161E03FC08C34A3
:10015000D1F460E080E00E94E20160E081E00E9472
:10016000E20160E082E00E94E20161E083E00E943F
:10017000E20161E084E00E94E20161E085E00E942A
:10018000E20160E02BC0823571F461E080E00E9402
:10019000E20161E081E00E94E20161E082E00E9410
:1001A000E20160E0CFCF8335E1F461E080E00E94BE
:1001B000E20160E081E00E94E20161E082E00E94F1
:1001C000E20161E083E00E94E20160E084E00E94DD
:1001D000E20161E085E00E94E20161E086E00C94CA
:1001E000E20108958CE00E941802892B51F48CE002
:1001F0000E941802892BD9F3809100018F5F8093B0
:100200000001809100018130B1F461E08BE00E9437
:10021000E20161E087E00E94E20160E088E00E9484
:10022000E20161E089E00E94E20160E08AE00E9470
:10023000E20186E447C08230B1F461E08BE00E94C5
:10024000E20160E087E00E94E20161E088E00E9454
:10025000E20160E089E00E94E20161E08AE00E9440
:10026000E20182E42FC08330B1F461E08BE00E94B0
:10027000E20161E087E00E94E20160E088E00E9424
:10028000E20160E089E00E94E20160E08AE00E9411
:10029000E20182E517C08430B9F461E08BE00E948E
:1002A000E20160E087E00E94E20160E088E00E94F5
:1002B000E20161E089E00E94E20160E08AE00E94E0
:1002C000E2018CE40C9487008530C9F460E08BE097
:1002D0000E94E20160E087E00E94E20160E088E0C5
:1002E0000E94E20160E089E00E94E20160E08AE0B1
:1002F0000E94E20183E50E948700109200010895A8
:10030000833081F028F4813099F08230A1F0089593
:100310008730A9F08830B9F08430D1F48091800022
:100320008F7D03C0809180008F7780938000089537
:1003300084B58F7702C084B58F7D84BD0895809188
:10034000B0008F7703C08091B0008F7D8093B000A4
:100350000895CF93DF9390E0FC01E458FF4F249180
:10036000FC01E057FF4F8491882349F190E0880F0A
:10037000991FFC01E854FF4FA591B49182559F4FFE
:10038000FC01C591D4919FB7611108C0F8948C917C
:10039000209582238C93888182230AC0623051F495
:1003A000F8948C91322F309583238C938881822B03
:1003B000888304C0F8948C91822B8C939FBFDF912B
:1003C000CF9108950F931F93CF93DF931F92CDB7D3
:1003D000DEB7282F30E0F901E859FF4F8491F90189
:1003E000E458FF4F1491F901E057FF4F04910023A7
:1003F000C9F0882321F069830E9480016981E02F80
:10040000F0E0EE0FFF1FE255FF4FA591B4919FB7AB
:10041000F8948C91611103C01095812301C0812B48
:100420008C939FBF0F90DF91CF911F910F910895F3
:10043000CF93DF93282F30E0F901E859FF4F8491E3
:10044000F901E458FF4FD491F901E057FF4FC491EF
:10045000CC2391F081110E948001EC2FF0E0EE0F8F
:10046000FF1FEC55FF4FA591B4912C912D2381E0F6
:1004700090E021F480E002C080E090E0DF91CF9135
:10048000089508950E949B020E9441020E947500F7
:10049000C0E0D0E00E94F2002097E1F30E9400004B
:1004A000F9CF1F920F920FB60F9211242F933F9303
:1004B0008F939F93AF93BF9380910201909103011B
:1004C000A0910401B09105013091010123E0230FB7
:1004D0002D3720F40196A11DB11D05C026E8230F7C
:1004E0000296A11DB11D20930101809302019093FA
:1004F0000301A0930401B09305018091060190913E
:100500000701A0910801B09109010196A11DB11D3B
:100510008093060190930701A0930801B09309010D
:10052000BF91AF919F918F913F912F910F900FBEEF
:100530000F901F901895789484B5826084BD84B51F
:10054000816084BD85B5826085BD85B5816085BDCE
:10055000EEE6F0E0808181608083E1E8F0E01082E7
:10056000808182608083808181608083E0E8F0E028
:10057000808181608083E1EBF0E080818460808312
:10058000E0EBF0E0808181608083EAE7F0E0808149
:1005900084608083808182608083808181608083A9
:1005A0008081806880831092C1000895F894FFCF05
:00000001FF
