:100000000C945D000C9485000C9485000C94850084
:100010000C9485000C9485000C9485000C9485004C
:100020000C9485000C9485000C9485000C9485003C
:100030000C9485000C9485000C9485000C9485002C
:100040000C94C8030C9485000C94E4020C941603E1
:100050000C9485000C9485000C9485000C9485000C
:100060000C9485000C94850000000008000201003B
:100070000003040700000000000000000102040863
:100080001020408001020408102001020408102002
:10009000040404040404040402020202020203032E
:1000A0000303030300000000250028002B000000CC
:1000B0000000240027002A00460311241FBECFEFB2
:1000C000D8E0DEBFCDBF11E0A0E0B1E0EEEEF8E099
:1000D00002C005900D92A031B107D9F721E0A0E14F
:1000E000B1E001C01D92AA3BB207E1F710E0CAEBF4
:1000F000D0E004C02297FE010E947104C83BD107E2
:10010000C9F70E948A030C9475040C94000026E041
:1001100040E855E260E070E084E191E00E948202F4
:1001200061E08DE00E94300161E08CE00E943001CE
:1001300061E08BE00E94300161E08AE00C943001C4
:10014000CF9384E191E00E949F01181619060CF0EC
:100150005CC084E191E00E94B801C82F682F84E15F
:1001600091E00E94C103C13491F4809113018F5F2B
:1001700080931301817887FF03C081508E6F8F5F5A
:10018000813011F461E001C060E08DE03BC0C23419
:1001900091F4809112018F5F80931201817887FF23
:1001A00003C081508E6F8F5F813011F461E001C018
:1001B00060E08CE027C0C33491F4809111018F5F1F
:1001C00080931101817887FF03C081508E6F8F5F0C
:1001D000813011F461E001C060E08BE013C0C434F1
:1001E000A1F4809110018F5F80931001817887FFC7
:1001F00003C081508E6F8F5F813011F461E001C0C8
:1002000060E08AE0CF910C946901CF91089583302A
:1002100081F028F4813099F08230A1F00895873080
:10022000A9F08830B9F08430D1F4809180008F7DBE
:1002300003C0809180008F7780938000089584B5FB
:100240008F7702C084B58F7D84BD08958091B00002
:100250008F7703C08091B0008F7D8093B0000895A8
:10026000CF93DF9390E0FC01E458FF4F2491FC0111
:10027000E057FF4F8491882349F190E0880F991F40
:10028000FC01E255FF4FA591B4918C559F4FFC01A5
:10029000C591D4919FB7611108C0F8948C912095B5
:1002A00082238C93888182230AC0623051F4F894AF
:1002B0008C91322F309583238C938881822B888375
:1002C00004C0F8948C91822B8C939FBFDF91CF91C7
:1002D00008950F931F93CF93DF931F92CDB7DEB78F
:1002E000282F30E0F901E859FF4F8491F901E458D3
:1002F000FF4F1491F901E057FF4F04910023C9F01B
:10030000882321F069830E9407016981E02FF0E0D2
:10031000EE0FFF1FEC55FF4FA591B4919FB7F894D6
:100320008C91611103C01095812301C0812B8C93A6
:100330009FBF0F90DF91CF911F910F910895FC0106
:10034000818D228D90E0805C9F4F821B91098F737D
:1003500099270895FC01918D828D981731F0828D37
:10036000E80FF11D858D90E008958FEF9FEF0895C0
:10037000FC01918D828D981761F0828DDF01A80FAD
:10038000B11D5D968C91928D9F5F9F73928F90E0CF
:1003900008958FEF9FEF08958CE393E0892B49F048
:1003A00080E090E0892B29F00E943C0381110C949D
:1003B00000000895FC01848DDF01A80FB11DA35A30
:1003C000BF4F2C91848D90E001968F739927848F75
:1003D000A689B7892C93A089B1898C9180648C936C
:1003E000938D848D981306C00288F389E02D808157
:1003F0008F7D80830895CF93DF93EC01888D8823D0
:10040000C9F0EA89FB89808185FD05C0A889B98981
:100410008C9186FD0FC00FB607FCF5CF808185FF5C
:10042000F2CFA889B9898C9185FFEDCFCE010E94CA
:10043000DA01E7CFDF91CF910895CF92DF92FF925B
:100440000F931F93CF93DF931F92CDB7DEB76C014D
:1004500081E0D60158968C9358975B969C915B9758
:100460005C968C915C97981307C05096ED91FC9127
:100470005197808185FD2EC0F601038D10E00F5F3E
:100480001F4F0F731127F02EF601848DF81211C043
:100490000FB607FCF9CFD6015096ED91FC9151971C
:1004A000808185FFF1CFC60169830E94DA016981ED
:1004B000EBCF838DE80FF11DE35AFF4F6083D60128
:1004C0005B960C935B975296ED91FC9153978081CC
:1004D00080620CC0D6015696ED91FC9157976083CF
:1004E0005096ED91FC91519780818064808381E0EA
:1004F00090E00F90DF91CF911F910F91FF90DF90CF
:10050000CF900895BF92CF92DF92EF92FF92CF9358
:10051000DF93EC016A017B01B22EE889F98982E060
:100520008083411581EE580761057105A1F060E0F7
:1005300079E08DE390E0A70196010E944D042150DF
:100540003109410951095695479537952795211548
:1005500080E1380798F0E889F989108260E874E84A
:100560008EE190E0A70196010E944D0421503109CF
:10057000410951095695479537952795EC85FD8595
:100580003083EE85FF852083188EEC89FD89B0824B
:10059000EA89FB89808180618083EA89FB89808187
:1005A00088608083EA89FB89808180688083EA890A
:1005B000FB8980818F7D8083DF91CF91FF90EF90C9
:1005C000DF90CF90BF9008951F920F920FB60F92B9
:1005D00011242F938F939F93EF93FF93E091240126
:1005E000F09125018081E0912A01F0912B0182FD9B
:1005F00012C0908180912D018F5F8F7320912E0109
:10060000821751F0E0912D01F0E0EC5EFE4F958FE6
:1006100080932D0101C08081FF91EF919F918F9177
:100620002F910F900FBE0F901F9018951F920F9251
:100630000FB60F9211242F933F934F935F936F93B5
:100640007F938F939F93AF93BF93EF93FF9384E137
:1006500091E00E94DA01FF91EF91BF91AF919F91DC
:100660008F917F916F915F914F913F912F910F905B
:100670000FBE0F901F90189584E191E00E949F019A
:1006800021E0892B09F420E0822F089510921701B0
:100690001092160188EE93E0A0E0B0E0809318017C
:1006A00090931901A0931A01B0931B0184E091E08B
:1006B000909315018093140185EC90E090932101B3
:1006C0008093200184EC90E0909323018093220199
:1006D00080EC90E0909325018093240181EC90E0E0
:1006E000909327018093260182EC90E0909329015A
:1006F0008093280186EC90E090932B0180932A014F
:1007000010922D0110922E0110922F0110923001A3
:10071000089508950E9412040E9489030E94870090
:10072000CCECD1E00E94A0002097E1F30E94CC0124
:10073000F9CFCF92DF92EF92FF920F931F93CF9357
:10074000DF936C017A01EB01E60EF71E00E010E08A
:10075000CE15DF0561F06991D601ED91FC91019014
:10076000F081E02DC6010995080F191FF1CFC801CE
:10077000DF91CF911F910F91FF90EF90DF90CF907D
:100780000895DC01ED91FC910190F081E02D099438
:100790001F920F920FB60F9211242F933F938F93B6
:1007A0009F93AF93BF938091B2019091B301A091B9
:1007B000B401B091B5013091B10123E0230F2D3781
:1007C00020F40196A11DB11D05C026E8230F029655
:1007D000A11DB11D2093B1018093B2019093B3018B
:1007E000A093B401B093B5018091B6019091B70187
:1007F000A091B801B091B9010196A11DB11D8093DE
:10080000B6019093B701A093B801B093B901BF911D
:10081000AF919F918F913F912F910F900FBE0F90AD
:100820001F901895789484B5826084BD84B58160EA
:1008300084BD85B5826085BD85B5816085BDEEE6E8
:10084000F0E0808181608083E1E8F0E010828081C7
:1008500082608083808181608083E0E8F0E0808135
:1008600081608083E1EBF0E0808184608083E0EB55
:10087000F0E0808181608083EAE7F0E0808184603D
:100880008083808182608083808181608083808199
:10089000806880831092C1000895A1E21A2EAA1BDD
:1008A000BB1BFD010DC0AA1FBB1FEE1FFF1FA21720
:1008B000B307E407F50720F0A21BB30BE40BF50B1D
:1008C000661F771F881F991F1A9469F760957095A6
:1008D000809590959B01AC01BD01CF010895EE0F6D
:0E08E000FF1F0590F491E02D0994F894FFCFCE
:1008EE00000000001D0299039F01B801AA01FB013F
:00000001FF
