:100000000C9462000C948A000C948A000C948A0070
:100010000C948A000C948A000C948A000C948A0038
:100020000C948A000C948A000C948A000C948A0028
:100030000C948A000C948A000C948A000C948A0018
:100040000C9496040C948A000C948A000C948A00F8
:100050000C948A000C948A000C948A000C948A00F8
:100060000C948A000C948A00000000080002010031
:100070000003040700000000000000000102040863
:100080001020408001020408102001020408102002
:10009000040404040404040402020202020203032E
:1000A00003030303000000002300260029000000D2
:1000B0000000250028002B0000000000240027007D
:1000C0002A00D30211241FBECFEFD8E0DEBFCDBF80
:1000D00011E0A0E0B1E0E2EFFEE002C005900D9279
:1000E000A635B107D9F721E0A6E5B1E001C01D9220
:1000F000AD37B207E1F710E0C4ECD0E004C02297BE
:10010000FE010E947307C23CD107C9F70E94330663
:100110000C9477070C94000062E08DE00E949A0531
:1001200062E08CE00E949A0562E08BE00E949A05F2
:1001300062E08AE00E949A0562E089E00E949A05E6
:1001400062E088E00E949A0562E087E00E949A05DA
:1001500020E042E060E18CE591E00E94AF03109264
:10016000560180915601833014F540E063E08CE540
:1001700091E00E94950360E071E08CE591E00E94BF
:10018000800664E670E080E090E00E9403058CE564
:1001900091E00E948E0364E670E080E090E00E94AF
:1001A0000305809156018F5F80935601DACF089541
:1001B000CF93DF9340E060E08CE591E00E949503EF
:1001C0006BE071E08CE591E00E94800680915B011C
:1001D000D4E66D2F0E943507682F772767FD70954D
:1001E0004AE050E08CE591E00E942C0780915B0191
:1001F0006D2F0E943507892FCAE06C2F0E943507AA
:10020000682F772767FD70954AE050E08CE591E014
:100210000E942C0780915B016C2F0E943507692F8B
:10022000772767FD70954AE050E08CE591E00E94E9
:100230002C076EE071E08CE591E00E9480068091D1
:100240005A016D2F0E943507682F772767FD70953B
:100250004AE050E08CE591E00E942C0780915A0121
:100260006D2F0E943507892F6C2F0E943507682F4C
:10027000772767FD70954AE050E08CE591E00E9499
:100280002C0780915A016C2F0E943507692F772720
:1002900067FD70954AE050E08CE591E00E942C07E4
:1002A00041E060E08CE591E00E94950365E171E03A
:1002B0008CE591E00E948006809159016C2F0E948C
:1002C0003507682F772767FD70954AE050E08CE589
:1002D00091E00E942C07809159016C2F0E943507F4
:1002E000692F772767FD70954AE050E08CE591E033
:1002F0000E942C0768E171E08CE591E00E94800685
:10030000809158016C2F0E943507682F772767FD71
:1003100070954AE050E08CE591E00E942C078091B6
:1003200058016C2F0E943507692F772767FD70955C
:100330004AE050E08CE591E00E942C076CE171E00E
:100340008CE591E00E948006809157016C2F0E94FD
:100350003507682F772767FD70954AE050E08CE5F8
:1003600091E00E942C07809157016C2F0E94350765
:10037000692F772767FD70954AE050E08CE591E0A2
:10038000DF91CF910C942C0787E00E940906892BFE
:1003900051F487E00E940906892BD9F380915A0114
:1003A0008F5F80935A0188E00E940906892B79F4B7
:1003B00088E00E940906892BD9F380915A018F5F4A
:1003C00080935A0180915B018F5F80935B0189E08C
:1003D0000E940906892B79F489E00E940906892B7D
:1003E000D9F380915A018F5F80935A0180915B010C
:1003F0008E5F80935B018AE00E940906892B79F465
:100400008AE00E940906892BD9F380915A018F5FF7
:1004100080935A0180915B018D5F80935B018BE03B
:100420000E940906892B39F08CE00E940906892B6D
:1004300009F444C03CC08BE00E940906892BD9F323
:1004400080915A018F5F80935A0180915B018C5F8C
:1004500080935B01809158018F5F809358011092C7
:100460005601809156018330FCF640E061E08CE556
:1004700091E00E94950360E271E08CE591E00E94BA
:10048000800664E670E080E090E00E9403058CE561
:1004900091E00E948E0364E670E080E090E00E94AC
:1004A0000305809156018F5F80935601DACF8DE06E
:1004B0000E940906892B09F43FC03CC08CE00E94D1
:1004C0000906892BD9F380915A018F5F80935A01D5
:1004D00080915B018A5F80935B01809157018F5F00
:1004E0008093570110925601809156018330FCF69B
:1004F00040E061E08CE591E00E9495036FE271E0DD
:100500008CE591E00E94800664E670E080E090E077
:100510000E9403058CE591E00E948E0364E670E082
:1005200080E090E00E940305809156018F5F8093E8
:100530005601DACF0C94D8008DE00E940906892B71
:10054000D9F380915A018F5F80935A0180915901AC
:100550008F5F80935901109256018091560183302C
:100560004CF740E061E08CE591E00E9495036EE37A
:1005700071E08CE591E00E94800664E670E080E026
:1005800090E00E9403058CE591E00E948E0364E6F2
:1005900070E080E090E00E940305809156018F5F3B
:1005A00080935601DACFCF92EF920F93C12CEE24B5
:1005B000E39402E023E044E065E08CE591E00E94F2
:1005C0006A040F91EF90CF900895CF93DF93EC01E1
:1005D00060E08E810E94D30581E090E00E942B05AF
:1005E00061E08E810E94D30581E090E00E942B059E
:1005F00060E08E810E94D30584E690E0DF91CF9188
:100600000C942B05CF92DF92EF92FF920F931F93E2
:10061000CF93DF937C01C0E0D0E0C62ED12C8701C0
:100620000C0F1D1F61E0F80187810E949A05B60139
:100630000C2E02C0759567950A94E2F76170F80177
:1006400087810E94D3052196C430D10541F7C701A7
:10065000DF91CF911F910F91FF90EF90DF90CF909E
:100660000C94E502CF92DF92EF92FF920F931F93CB
:10067000CF93DF937C01C0E0D0E0C62ED12C870160
:100680000C0F1D1F61E0F80187810E949A05B601D9
:100690000C2E02C0759567950A94E2F76170F80117
:1006A00087810E94D3052196C830D10541F7C70143
:1006B000DF91CF911F910F91FF90EF90DF90CF903E
:1006C0000C94E5021F93CF93DF93EC01162F642F58
:1006D0008C810E94D3058D818F3F19F060E00E94CC
:1006E000D3058F85612F84FF06C0CE01DF91CF91A6
:1006F0001F910C94320370E084E0759567958A959C
:10070000E1F7CE010E940203612FCE01DF91CF916C
:100710001F910C94020340E00C94620361E00E947C
:100720008B0380ED97E00C942B05443008F043E0F8
:10073000FC012389421710F04FEF420FFC01E40F38
:10074000F11D2489260F2068622F0C948B03FC0175
:100750006089262F2460208B6C600C948B03CF93D0
:10076000DF93EC01423018F08F8588608F874B8BC8
:100770001C8A80E48D8B6E8B70E0605C7F4F6F8B8A
:10078000222329F0413019F48F8584608F8780E51A
:1007900093EC0E942B0560E08C810E94D30560E001
:1007A0008E810E94D3058D818F3F19F060E00E94F9
:1007B000D3056F8564FD1DC063E0CE010E94020376
:1007C00084E991E10E942B0563E0CE010E940203BF
:1007D00084E991E10E942B0563E0CE010E940203AF
:1007E00086E990E00E942B0562E0CE010E940203A0
:1007F00016C06062CE010E948B0384E991E10E94E1
:100800002B056F856062CE010E948B0386E990E024
:100810000E942B056F856062CE010E948B036F855D
:100820006062CE010E948B0384E0888BCE010E941F
:10083000A703CE010E948E0382E0898B66E0CE0181
:10084000DF91CF910C948B036F927F928F92AF9236
:10085000CF92EF920F931F93CF93DF93CDB7DEB775
:100860003C01162F842F5D854E853F859889F301C5
:10087000848325830683E782C086A1868286538788
:1008800044873587968761E00E949A05F301858148
:100890008F3F19F061E00E949A0561E0F3018681C3
:1008A0000E949A05112319F0F301178603C080E115
:1008B000F301878720E041E060E1C301DF91CF9140
:1008C0001F910F91EF90CF90AF908F907F906F908E
:1008D0000C94AF038F92AF92CF92EF920F93DC0103
:1008E00013961C921E921297E1E5F1E0ED93FC93B2
:1008F0001F921F921F921F928C2CAE2CC02EE22EA4
:10090000042F2FEF462F61E00E9424040F900F90D8
:100910000F900F900F91EF90CF90AF908F90089520
:1009200041E00E94620381E090E008951F920F92DF
:100930000FB60F9211242F933F938F939F93AF93F2
:10094000BF938091750190917601A0917701B0914C
:1009500078013091740123E0230F2D3720F40196A4
:10096000A11DB11D05C026E8230F0296A11DB11DD2
:10097000209374018093750190937601A093770181
:10098000B09378018091790190917A01A0917B01D7
:10099000B0917C010196A11DB11D809379019093C6
:1009A0007A01A0937B01B0937C01BF91AF919F919D
:1009B0008F913F912F910F900FBE0F901F90189520
:1009C0003FB7F8948091790190917A01A0917B01D1
:1009D000B0917C0126B5A89B05C02F3F19F0019668
:1009E000A11DB11D3FBF6627782F892F9A2F620F57
:1009F000711D811D911D42E0660F771F881F991F91
:100A00004A95D1F70895CF92DF92EF92FF92CF935C
:100A1000DF936B017C010E94E004EB01C114D1045F
:100A2000E104F10489F00E9434070E94E0046C1B89
:100A30007D0B683E734090F381E0C81AD108E1084D
:100A4000F108C851DC4FEACFDF91CF91FF90EF90D2
:100A5000DF90CF9008958230910538F0880F991F6C
:100A6000880F991F05970197F1F70895789484B539
:100A7000826084BD84B5816084BD85B5826085BD9A
:100A800085B5816085BDEEE6F0E080818160808380
:100A9000E1E8F0E010828081826080838081816063
:100AA0008083E0E8F0E0808181608083E1EBF0E02A
:100AB000808184608083E0EBF0E0808181608083CE
:100AC000EAE7F0E0808184608083808182608083B7
:100AD0008081816080838081806880831092C100E2
:100AE0000895833081F028F4813099F08230A1F0AC
:100AF00008958730A9F08830B9F08430D1F480911E
:100B000080008F7D03C0809180008F77809380006C
:100B1000089584B58F7702C084B58F7D84BD089514
:100B20008091B0008F7703C08091B0008F7D80935B
:100B3000B0000895CF93DF9390E0FC01E458FF4F9D
:100B40002491FC01E057FF4F8491882349F190E004
:100B5000880F991FFC01E854FF4FA591B49182556D
:100B60009F4FFC01C591D4919FB7611108C0F894C3
:100B70008C91209582238C93888182230AC06230D5
:100B800051F4F8948C91322F309583238C93888183
:100B9000822B888304C0F8948C91822B8C939FBF06
:100BA000DF91CF9108950F931F93CF93DF931F92FF
:100BB000CDB7DEB7282F30E0F901E859FF4F849117
:100BC000F901E458FF4F1491F901E057FF4F0491E8
:100BD0000023C9F0882321F069830E94710569818F
:100BE000E02FF0E0EE0FFF1FE255FF4FA591B4910B
:100BF0009FB7F8948C91611103C01095812301C0B7
:100C0000812B8C939FBF0F90DF91CF911F910F91FC
:100C10000895CF93DF93282F30E0F901E859FF4F73
:100C20008491F901E458FF4FD491F901E057FF4F47
:100C3000C491CC2391F081110E947105EC2FF0E05A
:100C4000EE0FFF1FEC55FF4FA591B4912C912D2372
:100C500081E090E021F480E002C080E090E0DF914C
:100C6000CF91089508950E9436050E9432060E9491
:100C70008C00C0E0D0E00E94C4012097E1F30E9404
:100C80000000F9CFCF92DF92EF92FF920F931F9364
:100C9000CF93DF936C017A01EB01E60EF71E00E0C3
:100CA00010E0CE15DF0561F06991D601ED91FC9160
:100CB0000190F081E02DC6010995080F191FF1CFB1
:100CC000C801DF91CF911F910F91FF90EF90DF90BE
:100CD000CF9008956115710581F0DB010D90002022
:100CE000E9F7AD0141505109461B570BDC01ED916D
:100CF000FC910280F381E02D099480E090E008955A
:100D00000C946A06DC01ED91FC910190F081E02DDC
:100D100009948F929F92AF92BF92CF92DF92EF92FF
:100D2000FF920F931F93CF93DF93CDB7DEB7A197B9
:100D30000FB6F894DEBF0FBECDBF7C01C42EE52FE9
:100D4000CB01D22E19A221E02D1510F02AE0D22ECF
:100D50008E010F5D1F4F8D2C912CA12CB12C6C2D71
:100D60007E2FA50194010E9443078C2DD29E8019ED
:100D70001124015011098A3014F4805D01C0895C8E
:100D8000F8018083211531054105510521F0C22E5E
:100D9000E32FCA01E4CFB801C7010E946A06A196F9
:100DA0000FB6F894DEBF0FBECDBFDF91CF911F917C
:100DB0000F91FF90EF90DF90CF90BF90AF909F90FA
:100DC0008F900895CF92DF92EF92FF920F931F932F
:100DD000CF93DF93EC016A017B012115310579F492
:100DE000E881F9810190F081E02D642FDF91CF91AE
:100DF0001F910F91FF90EF90DF90CF9009942A30D0
:100E00003105E9F477FF1AC06DE20E9482068C0179
:100E100044275527BA014C195D096E097F092AE05C
:100E2000CE010E948906800F911FDF91CF911F9103
:100E30000F91FF90EF90DF90CF9008952AE0B701D7
:100E4000A601CE01DF91CF911F910F91FF90EF90FE
:100E5000DF90CF900C9489069A01AB01662757FD6D
:100E60006095762F0C94E206089587FB082E0626DF
:100E700087FD819567FD61950E9465070EF4919548
:100E800007FC81950895A1E21A2EAA1BBB1BFD0148
:100E90000DC0AA1FBB1FEE1FFF1FA217B307E40759
:100EA000F50720F0A21BB30BE40BF50B661F771FB1
:100EB000881F991F1A9469F7609570958095909591
:100EC0009B01AC01BD01CF010895991B79E004C0DD
:100ED000991F961708F0961B881F7A95C9F7809579
:100EE0000895EE0FFF1F0590F491E02D0994F894FA
:020EF000FFCF32
:100EF200494E442056532050414B00523A00204262
:100F0200414C4C3A00573A0020463A0020533A00EE
:100F1200464F555220464F555220464F5552005388
:100F220049582120534958212053495821004F55EF
:100F32005421204F555421204F55542100000000C8
:060F4200009004420600CD
:00000001FF
