:100000000C945E000C9486000C9486000C94860080
:100010000C9486000C9486000C9486000C94860048
:100020000C9486000C9486000C9486000C94860038
:100030000C9486000C9486000C9486000C94860028
:100040000C9416030C9486000C94CE050C940006B8
:100050000C9486000C9486000C9486000C94860008
:100060000C9486000C948600000000080002010039
:100070000003040700000000000000000102040863
:100080001020408001020408102001020408102002
:10009000040404040404040402020202020203032E
:1000A0000303030300000000250028002B000000CC
:1000B0000000240027002A009C00300611241FBEE7
:1000C000CFEFD8E0DEBFCDBF11E0A0E0B1E0ECEFB4
:1000D000FDE002C005900D92A038B107D9F722E0EB
:1000E000A0E8B1E001C01D92AF34B207E1F710E023
:1000F000CCEBD0E004C02297FE010E94EF06C83B83
:10010000D107C9F70E9474060C94FC060C940000F9
:1001100026E040E855E260E070E082EB91E00E946A
:100120006C0520E042E060E181E991E00E942F024D
:1001300061E08DE00C941A04CF92EF920F9382E06D
:10014000C82E93E0E92E04E025E04CE06DE081E963
:1001500091E00E94EA020F91EF90CF9008950F93E3
:100160001F93CF93DF9382EB91E00E9489041816CE
:1001700019060CF0A5C0C0918301DD27C7FDD095FD
:1001800082EB91E00E94A204CC57DE4F8883E0917D
:100190008301FF27E7FDF095EC57FE4F608182EB6E
:1001A00091E00E94C30641E06091830181E991E002
:1001B0000E941502E0918301FF27E7FDF095EC57BF
:1001C000FE4F608181E991E00E94C3068091830126
:1001D0008F5F809383018C3009F072C01092900180
:1001E00010928301109282010DE010918201133070
:1001F000B4F41003B001112460507F4F84E891E003
:100200000E94F306892B39F4809181018F5F8093DE
:100210008101109380011F5F10938201E6CF8091CE
:100220008101882379F181E991E00E940E0240E08A
:1002300060E081E991E00E94150265E471E081E9E6
:1002400091E00E94C10660ED77E080E090E00E94BE
:10025000830381E991E00E940E0240E060E081E9C1
:1002600091E00E941502609180018AE06802B0016D
:100270001124695D7E4F81E991E00E94C1061092D0
:1002800081011EC081E991E00E940E0240E060E021
:1002900081E991E00E94150266E571E081E991E053
:1002A0000E94C10660ED77E080E090E00E94830349
:1002B00081E991E0DF91CF911F910F910C940E0293
:1002C000DF91CF911F910F910895CF93DF93EC01B0
:1002D00060E08E810E94530481E090E00E94AB03B5
:1002E00061E08E810E94530481E090E00E94AB03A4
:1002F00060E08E810E94530484E690E0DF91CF910C
:100300000C94AB03CF92DF92EF92FF920F931F9367
:10031000CF93DF937C01C0E0D0E0C62ED12C8701C3
:100320000C0F1D1F61E0F80187810E941A04B601BD
:100330000C2E02C0759567950A94E2F76170F8017A
:1003400087810E9453042196C430D10541F7C7012B
:10035000DF91CF911F910F91FF90EF90DF90CF90A1
:100360000C946501CF92DF92EF92FF920F931F934F
:10037000CF93DF937C01C0E0D0E0C62ED12C870163
:100380000C0F1D1F61E0F80187810E941A04B6015D
:100390000C2E02C0759567950A94E2F76170F8011A
:1003A00087810E9453042196C830D10541F7C701C7
:1003B000DF91CF911F910F91FF90EF90DF90CF9041
:1003C0000C9465011F93CF93DF93EC01162F642FDC
:1003D0008C810E9453048D818F3F19F060E00E9450
:1003E00053048F85612F84FF06C0CE01DF91CF912A
:1003F0001F910C94B20170E084E0759567958A9521
:10040000E1F7CE010E948201612FCE01DF91CF91F1
:100410001F910C94820140E00C94E20161E00E9483
:100420000B0280ED97E00C94AB03443008F043E0FE
:10043000FC012389421710F04FEF420FFC01E40F3B
:10044000F11D2489260F2068622F0C940B02FC01F9
:100450006089262F2460208B6C600C940B02CF9354
:10046000DF93EC01423018F08F8588608F874B8BCB
:100470001C8A80E48D8B6E8B70E0605C7F4F6F8B8D
:10048000222329F0413019F48F8584608F8780E51D
:1004900093EC0E94AB0360E08C810E94530460E007
:1004A0008E810E9453048D818F3F19F060E00E947D
:1004B00053046F8564FD1DC063E0CE010E9482017C
:1004C00084E991E10E94AB0363E0CE010E948201C6
:1004D00084E991E10E94AB0363E0CE010E948201B6
:1004E00086E990E00E94AB0362E0CE010E948201A7
:1004F00016C06062CE010E940B0284E991E10E9465
:10050000AB036F856062CE010E940B0286E990E02A
:100510000E94AB036F856062CE010E940B026F8563
:100520006062CE010E940B0284E0888BCE010E94A3
:100530002702CE010E940E0282E0898B66E0CE0186
:10054000DF91CF910C940B026F927F928F92AF92BA
:10055000CF92EF920F931F93CF93DF93CDB7DEB778
:100560003C01162F842F5D854E853F859889F301C8
:10057000848325830683E782C086A186828653878B
:1005800044873587968761E00E941A04F3018581CC
:100590008F3F19F061E00E941A0461E0F301868147
:1005A0000E941A04112319F0F301178603C080E199
:1005B000F301878720E041E060E1C301DF91CF9143
:1005C0001F910F91EF90CF90AF908F907F906F9091
:1005D0000C942F028F92AF92CF92EF920F93DC0187
:1005E00013961C921E921297EBE6F1E0ED93FC93AA
:1005F0001F921F921F921F928C2CAE2CC02EE22EA7
:10060000042F2FEF462F61E00E94A4020F900F905D
:100610000F900F900F91EF90CF90AF908F90089523
:1006200041E00E94E20181E090E008951F920F9264
:100630000FB60F9211242F933F938F939F93AF93F5
:10064000BF938091AA019091AB01A091AC01B091B0
:10065000AD013091A90123E0230F2D3720F401963D
:10066000A11DB11D05C026E8230F0296A11DB11DD5
:100670002093A9018093AA019093AB01A093AC01B0
:10068000B093AD018091AE019091AF01A091B00106
:10069000B091B1010196A11DB11D8093AE0190935F
:1006A000AF01A093B001B093B101BF91AF919F9101
:1006B0008F913F912F910F900FBE0F901F90189523
:1006C0003FB7F8948091AE019091AF01A091B00135
:1006D000B091B10126B5A89B05C02F3F19F0019636
:1006E000A11DB11D3FBF6627782F892F9A2F620F5A
:1006F000711D811D911D42E0660F771F881F991F94
:100700004A95D1F70895CF92DF92EF92FF92CF935F
:10071000DF936B017C010E946003EB01C114D104E3
:10072000E104F10489F00E94CA060E9460036C1B78
:100730007D0B683E734090F381E0C81AD108E10850
:10074000F108C851DC4FEACFDF91CF91FF90EF90D5
:10075000DF90CF9008958230910538F0880F991F6F
:10076000880F991F05970197F1F70895789484B53C
:10077000826084BD84B5816084BD85B5826085BD9D
:1007800085B5816085BDEEE6F0E080818160808383
:10079000E1E8F0E010828081826080838081816066
:1007A0008083E0E8F0E0808181608083E1EBF0E02D
:1007B000808184608083E0EBF0E0808181608083D1
:1007C000EAE7F0E0808184608083808182608083BA
:1007D0008081816080838081806880831092C100E5
:1007E0000895833081F028F4813099F08230A1F0AF
:1007F00008958730A9F08830B9F08430D1F4809121
:1008000080008F7D03C0809180008F77809380006F
:10081000089584B58F7702C084B58F7D84BD089517
:100820008091B0008F7703C08091B0008F7D80935E
:10083000B0000895CF93DF9390E0FC01E458FF4FA0
:100840002491FC01E057FF4F8491882349F190E007
:10085000880F991FFC01E255FF4FA591B4918C556B
:100860009F4FFC01C591D4919FB7611108C0F894C6
:100870008C91209582238C93888182230AC06230D8
:1008800051F4F8948C91322F309583238C93888186
:10089000822B888304C0F8948C91822B8C939FBF09
:1008A000DF91CF9108950F931F93CF93DF931F9202
:1008B000CDB7DEB7282F30E0F901E859FF4F84911A
:1008C000F901E458FF4F1491F901E057FF4F0491EB
:1008D0000023C9F0882321F069830E94F103698114
:1008E000E02FF0E0EE0FFF1FEC55FF4FA591B49104
:1008F0009FB7F8948C91611103C01095812301C0BA
:10090000812B8C939FBF0F90DF91CF911F910F91FF
:100910000895FC01818D228D90E0805C9F4F821BA9
:1009200091098F7399270895FC01918D828D9817F5
:1009300031F0828DE80FF11D858D90E008958FEFE5
:100940009FEF0895FC01918D828D981761F0828D43
:10095000DF01A80FB11D5D968C91928D9F5F9F73F3
:10096000928F90E008958FEF9FEF089586E296E0D2
:10097000892B49F080E090E0892B29F00E9426061F
:1009800081110C9400000895FC01848DDF01A80FF3
:10099000B11DA35ABF4F2C91848D90E001968F73A7
:1009A0009927848FA689B7892C93A089B1898C91C6
:1009B00080648C93938D848D981306C00288F3898C
:1009C000E02D80818F7D80830895CF93DF93EC01AC
:1009D000888D8823C9F0EA89FB89808185FD05C05F
:1009E000A889B9898C9186FD0FC00FB607FCF5CF99
:1009F000808185FFF2CFA889B9898C9185FFEDCFE1
:100A0000CE010E94C404E7CFDF91CF910895CF9229
:100A1000DF92FF920F931F93CF93DF931F92CDB777
:100A2000DEB76C0181E0D60158968C9358975B969F
:100A30009C915B975C968C915C97981307C050963D
:100A4000ED91FC915197808185FD2EC0F601038DBB
:100A500010E00F5F1F4F0F731127F02EF601848DEA
:100A6000F81211C00FB607FCF9CFD6015096ED91E0
:100A7000FC915197808185FFF1CFC60169830E9467
:100A8000C4046981EBCF838DE80FF11DE35AFF4F5A
:100A90006083D6015B960C935B975296ED91FC9127
:100AA0005397808180620CC0D6015696ED91FC91DF
:100AB000579760835096ED91FC91519780818064A7
:100AC000808381E090E00F90DF91CF911F910F9193
:100AD000FF90DF90CF900895BF92CF92DF92EF9278
:100AE000FF92CF93DF93EC016A017B01B22EE8897C
:100AF000F98982E08083411581EE5807610571050F
:100B0000A1F060E079E08DE390E0A70196010E94FA
:100B1000CB06215031094109510956954795379522
:100B20002795211580E1380798F0E889F989108226
:100B300060E874E88EE190E0A70196010E94CB0680
:100B40002150310941095109569547953795279507
:100B5000EC85FD853083EE85FF852083188EEC893A
:100B6000FD89B082EA89FB89808180618083EA897E
:100B7000FB89808188608083EA89FB898081806825
:100B80008083EA89FB8980818F7D8083DF91CF918B
:100B9000FF90EF90DF90CF90BF9008951F920F923B
:100BA0000FB60F9211242F938F939F93EF93FF9380
:100BB000E091C201F091C3018081E091C801F09100
:100BC000C90182FD12C090818091CB018F5F8F732C
:100BD0002091CC01821751F0E091CB01F0E0EE546E
:100BE000FE4F958F8093CB0101C08081FF91EF91E3
:100BF0009F918F912F910F900FBE0F901F9018957E
:100C00001F920F920FB60F9211242F933F934F9381
:100C10005F936F937F938F939F93AF93BF93EF9364
:100C2000FF9382EB91E00E94C404FF91EF91BF918A
:100C3000AF919F918F917F916F915F914F913F9174
:100C40002F910F900FBE0F901F90189582EB91E09F
:100C50000E94890421E0892B09F420E0822F089565
:100C60001092B5011092B40188EE93E0A0E0B0E0DC
:100C70008093B6019093B701A093B801B093B901E6
:100C800083E791E09093B3018093B20185EC90E00B
:100C90009093BF018093BE0184EC90E09093C101DA
:100CA0008093C00180EC90E09093C3018093C201D7
:100CB00081EC90E09093C5018093C40182EC90E0B8
:100CC0009093C7018093C60186EC90E09093C90190
:100CD0008093C8011092CB011092CC011092CD01EB
:100CE0001092CE01089508950E94B6030E947306E3
:100CF0000E948800C6EBD4E00E94AF002097E1F389
:100D00000E94B604F9CFCF92DF92EF92FF920F9339
:100D10001F93CF93DF936C017A01EB01E60EF71E70
:100D200000E010E0CE15DF0561F06991D601ED918C
:100D3000FC910190F081E02DC6010995080F191F63
:100D4000F1CFC801DF91CF911F910F91FF90EF90EC
:100D5000DF90CF9008956115710581F0DB010D9052
:100D60000020E9F7AD0141505109461B570BDC014A
:100D7000ED91FC910280F381E02D099480E090E0F8
:100D800008950C94AB06DC01ED91FC910190F0818B
:100D9000E02D09940895A1E21A2EAA1BBB1BFD01A8
:100DA0000DC0AA1FBB1FEE1FFF1FA217B307E4074A
:100DB000F50720F0A21BB30BE40BF50B661F771FA2
:100DC000881F991F1A9469F7609570958095909582
:100DD0009B01AC01BD01CF010895EE0FFF1F0590EF
:100DE000F491E02D0994FB01DC018D9101908019B3
:0C0DF0000110D9F3990B0895F894FFCF7F
:100DFC003030414243443130323458590030303174
:100E0C003233344142434458590030303233343554
:100E1C004142434458590047415552415600000045
:100E2C0000564952414A00000000005341525645B9
:100E3C00534800000020414343455353204752413F
:100E4C004E544544200020414343455353204445D0
:100E5C004E49454421200000000000100383060089
:100E6C00000000070583068904A2049404E504002D
:00000001FF
