:100000000C945D000C9485000C9485000C94850084
:100010000C9485000C9485000C9485000C9485004C
:100020000C9485000C9485000C9485000C9485003C
:100030000C9485000C9485000C9485000C9485002C
:100040000C9464020C9485000C9485000C9485003B
:100050000C9485000C9485000C9485000C9485000C
:100060000C9485000C94850000000008000201003B
:100070000003040700000000000000000102040863
:100080001020408001020408102001020408102002
:10009000040404040404040402020202020203032E
:1000A0000303030300000000250028002B000000CC
:1000B0000000240027002A00A00011241FBECFEF5B
:1000C000D8E0DEBFCDBF11E0A0E0B1E0E8ECF7E0A2
:1000D00002C005900D92A432B107D9F721E0A4E245
:1000E000B1E001C01D92A534B207E1F710E0CAEB00
:1000F000D0E004C02297FE010E94DE03C83BD10776
:10010000C9F70E948D030C94E2030C94000020E0D8
:1001100042E060E184E291E00E947D0160E071E0F4
:1001200084E291E00C94DA0341E060E084E291E043
:100130000E9463016DE071E084E291E00C94DA03C7
:10014000CF92EF920F9382E0C82E93E0E92E04E065
:1001500025E04BE06CE084E291E00E9438020F91D0
:10016000EF90CF900895CF93DF93EC0160E08E8104
:100170000E94560381E090E00E94AE0261E08E8111
:100180000E94560381E090E00E94AE0260E08E8102
:100190000E94560384E690E0DF91CF910C94AE026A
:1001A000CF92DF92EF92FF920F931F93CF93DF9343
:1001B0007C01C0E0D0E0C62ED12C87010C0F1D1FA2
:1001C00061E0F80187810E941D03B6010C2E02C078
:1001D000759567950A94E2F76170F80187810E942E
:1001E00056032196C430D10541F7C701DF91CF9165
:1001F0001F910F91FF90EF90DF90CF900C94B30080
:10020000CF92DF92EF92FF920F931F93CF93DF93E2
:100210007C01C0E0D0E0C62ED12C87010C0F1D1F41
:1002200061E0F80187810E941D03B6010C2E02C017
:10023000759567950A94E2F76170F80187810E94CD
:1002400056032196C830D10541F7C701DF91CF9100
:100250001F910F91FF90EF90DF90CF900C94B3001F
:100260001F93CF93DF93EC01162F642F8C810E9494
:1002700056038D818F3F19F060E00E9456038F85F1
:10028000612F84FF06C0CE01DF91CF911F910C94A6
:10029000000170E084E0759567958A95E1F7CE01DD
:1002A0000E94D000612FCE01DF91CF911F910C945D
:1002B000D00040E00C94300161E00E94590180EDD3
:1002C00097E00C94AE02443008F043E0FC0123892F
:1002D000421710F04FEF420FFC01E40FF11D24898B
:1002E000260F2068622F0C945901FC016089262F8B
:1002F0002460208B6C600C945901CF93DF93EC0148
:10030000423018F08F8588608F874B8B1C8A80E481
:100310008D8B6E8B70E0605C7F4F6F8B222329F09A
:10032000413019F48F8584608F8780E593EC0E94BB
:10033000AE0260E08C810E94560360E08E810E94D4
:1003400056038D818F3F19F060E00E9456036F8540
:1003500064FD1DC063E0CE010E94D00084E991E1FC
:100360000E94AE0263E0CE010E94D00084E991E1D8
:100370000E94AE0263E0CE010E94D00086E990E0C8
:100380000E94AE0262E0CE010E94D00016C0606200
:10039000CE010E94590184E991E10E94AE026F856D
:1003A0006062CE010E94590186E990E00E94AE028F
:1003B0006F856062CE010E9459016F856062CE0137
:1003C0000E94590184E0888BCE010E947501CE0104
:1003D0000E945C0182E0898B66E0CE01DF91CF91C3
:1003E0000C9459016F927F928F92AF92CF92EF92BD
:1003F0000F931F93CF93DF93CDB7DEB73C01162F3A
:10040000842F5D854E853F859889F30184832583FC
:100410000683E782C086A186828653874487358714
:10042000968761E00E941D03F30185818F3F19F0DB
:1004300061E00E941D0361E0F30186810E941D03BB
:10044000112319F0F301178603C080E1F3018787B8
:1004500020E041E060E1C301DF91CF911F910F9156
:10046000EF90CF90AF908F907F906F900C947D0124
:100470008F92AF92CF92EF920F93DC0113961C9262
:100480001E921297EFE1F1E0ED93FC931F921F9201
:100490001F921F928C2CAE2CC02EE22E042F2FEF19
:1004A000462F61E00E94F2010F900F900F900F9085
:1004B0000F91EF90CF90AF908F90089541E00E9400
:1004C000300181E090E008951F920F920FB60F92D5
:1004D00011242F933F938F939F93AF93BF9380915A
:1004E0003D0190913E01A0913F01B09140013091BA
:1004F0003C0123E0230F2D3720F40196A11DB11DEF
:1005000005C026E8230F0296A11DB11D20933C01D2
:1005100080933D0190933E01A0933F01B093400131
:100520008091410190914201A0914301B091440119
:100530000196A11DB11D8093410190934201A093AA
:100540004301B0934401BF91AF919F918F913F912F
:100550002F910F900FBE0F901F901895823091052C
:1005600038F0880F991F880F991F05970197F1F7A9
:100570000895789484B5826084BD84B5816084BD1B
:1005800085B5826085BD85B5816085BDEEE6F0E00C
:10059000808181608083E1E8F0E010828081826068
:1005A0008083808181608083E0E8F0E080818160E9
:1005B0008083E1EBF0E0808184608083E0EBF0E019
:1005C000808181608083EAE7F0E0808184608083BD
:1005D0008081826080838081816080838081806867
:1005E00080831092C1000895833081F028F4813017
:1005F00099F08230A1F008958730A9F08830B9F0E1
:100600008430D1F4809180008F7D03C08091800080
:100610008F7780938000089584B58F7702C084B56A
:100620008F7D84BD08958091B0008F7703C0809145
:10063000B0008F7D8093B0000895CF93DF9390E05A
:10064000FC01E458FF4F2491FC01E057FF4F8491D7
:10065000882349F190E0880F991FFC01E255FF4F74
:10066000A591B4918C559F4FFC01C591D4919FB732
:10067000611108C0F8948C91209582238C93888115
:1006800082230AC0623051F4F8948C91322F309555
:1006900083238C938881822B888304C0F8948C9167
:1006A000822B8C939FBFDF91CF9108950F931F935F
:1006B000CF93DF931F92CDB7DEB7282F30E0F9013B
:1006C000E859FF4F8491F901E458FF4F1491F90163
:1006D000E057FF4F04910023C9F0882321F069837C
:1006E0000E94F4026981E02FF0E0EE0FFF1FEC554D
:1006F000FF4FA591B4919FB7F8948C91611103C0FD
:100700001095812301C0812B8C939FBF0F90DF91A7
:10071000CF911F910F91089508950E94B9020E94F0
:100720008C030E948700C0E0D0E00E9494002097D4
:10073000E1F30E940000F9CFCF92DF92EF92FF9297
:100740000F931F93CF93DF936C017A01EB01E60EB9
:10075000F71E00E010E0CE15DF0561F06991D601CB
:10076000ED91FC910190F081E02DC6010995080FF3
:10077000191FF1CFC801DF91CF911F910F91FF9009
:10078000EF90DF90CF9008956115710581F0DB0146
:100790000D900020E9F7AD0141505109461B570B60
:1007A000DC01ED91FC910280F381E02D099480E061
:1007B00090E008950C94C403EE0FFF1F0590F49190
:0807C000E02D0994F894FFCF2D
:1007C80048656C6C6F20576F726C64210047415507
:1007D800524156204E454D41444500000000005E00
:0407E800029C03006C
:00000001FF
